{"contracts/NotarialContract.sol":{"NotarialContract":{"abi":[{"inputs":[],"stateMutability":"nonpayable","type":"constructor"},{"inputs":[],"name":"AccessControlBadConfirmation","type":"error"},{"inputs":[{"internalType":"address","name":"account","type":"address"},{"internalType":"bytes32","name":"neededRole","type":"bytes32"}],"name":"AccessControlUnauthorizedAccount","type":"error"},{"anonymous":false,"inputs":[{"indexed":true,"internalType":"uint256","name":"id","type":"uint256"},{"indexed":false,"internalType":"string","name":"newIpfsHash","type":"string"},{"indexed":false,"internalType":"uint256","name":"timestamp","type":"uint256"}],"name":"ContractModified","type":"event"},{"anonymous":false,"inputs":[{"indexed":true,"internalType":"uint256","name":"id","type":"uint256"},{"indexed":false,"internalType":"string","name":"ipfsHash","type":"string"},{"indexed":false,"internalType":"uint256","name":"timestamp","type":"uint256"},{"indexed":false,"internalType":"address","name":"owner","type":"address"}],"name":"ContractStored","type":"event"},{"anonymous":false,"inputs":[{"indexed":true,"internalType":"bytes32","name":"role","type":"bytes32"},{"indexed":true,"internalType":"bytes32","name":"previousAdminRole","type":"bytes32"},{"indexed":true,"internalType":"bytes32","name":"newAdminRole","type":"bytes32"}],"name":"RoleAdminChanged","type":"event"},{"anonymous":false,"inputs":[{"indexed":true,"internalType":"bytes32","name":"role","type":"bytes32"},{"indexed":true,"internalType":"address","name":"account","type":"address"},{"indexed":true,"internalType":"address","name":"sender","type":"address"}],"name":"RoleGranted","type":"event"},{"anonymous":false,"inputs":[{"indexed":true,"internalType":"bytes32","name":"role","type":"bytes32"},{"indexed":true,"internalType":"address","name":"account","type":"address"},{"indexed":true,"internalType":"address","name":"sender","type":"address"}],"name":"RoleRevoked","type":"event"},{"inputs":[],"name":"ADMIN_ROLE","outputs":[{"internalType":"bytes32","name":"","type":"bytes32"}],"stateMutability":"view","type":"function"},{"inputs":[],"name":"DEFAULT_ADMIN_ROLE","outputs":[{"internalType":"bytes32","name":"","type":"bytes32"}],"stateMutability":"view","type":"function"},{"inputs":[],"name":"NOTARY_ROLE","outputs":[{"internalType":"bytes32","name":"","type":"bytes32"}],"stateMutability":"view","type":"function"},{"inputs":[{"internalType":"address","name":"notary","type":"address"}],"name":"addNotary","outputs":[],"stateMutability":"nonpayable","type":"function"},{"inputs":[],"name":"contractCount","outputs":[{"internalType":"uint256","name":"","type":"uint256"}],"stateMutability":"view","type":"function"},{"inputs":[{"internalType":"uint256","name":"","type":"uint256"}],"name":"contracts","outputs":[{"internalType":"string","name":"ipfsHash","type":"string"},{"internalType":"uint256","name":"timestamp","type":"uint256"},{"internalType":"bool","name":"isModified","type":"bool"},{"internalType":"address","name":"owner","type":"address"}],"stateMutability":"view","type":"function"},{"inputs":[{"internalType":"address","name":"_owner","type":"address"}],"name":"getContractsByOwner","outputs":[{"internalType":"uint256[]","name":"","type":"uint256[]"}],"stateMutability":"view","type":"function"},{"inputs":[{"internalType":"bytes32","name":"role","type":"bytes32"}],"name":"getRoleAdmin","outputs":[{"internalType":"bytes32","name":"","type":"bytes32"}],"stateMutability":"view","type":"function"},{"inputs":[{"internalType":"bytes32","name":"role","type":"bytes32"},{"internalType":"address","name":"account","type":"address"}],"name":"grantRole","outputs":[],"stateMutability":"nonpayable","type":"function"},{"inputs":[{"internalType":"bytes32","name":"role","type":"bytes32"},{"internalType":"address","name":"account","type":"address"}],"name":"hasRole","outputs":[{"internalType":"bool","name":"","type":"bool"}],"stateMutability":"view","type":"function"},{"inputs":[{"internalType":"uint256","name":"_id","type":"uint256"},{"internalType":"string","name":"_newIpfsHash","type":"string"}],"name":"modifyContract","outputs":[],"stateMutability":"nonpayable","type":"function"},{"inputs":[{"internalType":"address","name":"","type":"address"},{"internalType":"uint256","name":"","type":"uint256"}],"name":"ownerToContracts","outputs":[{"internalType":"uint256","name":"","type":"uint256"}],"stateMutability":"view","type":"function"},{"inputs":[{"internalType":"address","name":"notary","type":"address"}],"name":"removeNotary","outputs":[],"stateMutability":"nonpayable","type":"function"},{"inputs":[{"internalType":"bytes32","name":"role","type":"bytes32"},{"internalType":"address","name":"callerConfirmation","type":"address"}],"name":"renounceRole","outputs":[],"stateMutability":"nonpayable","type":"function"},{"inputs":[{"internalType":"bytes32","name":"role","type":"bytes32"},{"internalType":"address","name":"account","type":"address"}],"name":"revokeRole","outputs":[],"stateMutability":"nonpayable","type":"function"},{"inputs":[{"internalType":"string","name":"_ipfsHash","type":"string"},{"internalType":"address","name":"_owner","type":"address"}],"name":"storeContract","outputs":[],"stateMutability":"nonpayable","type":"function"},{"inputs":[{"internalType":"bytes4","name":"interfaceId","type":"bytes4"}],"name":"supportsInterface","outputs":[{"internalType":"bool","name":"","type":"bool"}],"stateMutability":"view","type":"function"}],"evm":{"bytecode":{"linkReferences":{},"object":"60806040523480156200001157600080fd5b50620000276000801b336200007f60201b60201c565b620000797f014df5ee2861d7f34562399ffa112fc59b51f810d2b875c3609ba0c31ac873d07fa49807205ce4d355092ef5a8a18f56e8913cf4a201fbe287825b095693c21775620000b960201b60201c565b620003bd565b62000090826200011c60201b60201c565b620000a1816200013b60201b60201c565b620000b383836200015f60201b60201c565b50505050565b6000620000cc836200011c60201b60201c565b905081600080858152602001908152602001600020600101819055508181847fbd79b86ffe0ab8e8776151514217cd7cacd52c909f66475c3af44e129f0b00ff60405160405180910390a4505050565b6000806000838152602001908152602001600020600101549050919050565b6200015c81620001506200026260201b60201c565b6200026a60201b60201c565b50565b6000620001738383620002c660201b60201c565b6200025757600160008085815260200190815260200160002060000160008473ffffffffffffffffffffffffffffffffffffffff1673ffffffffffffffffffffffffffffffffffffffff16815260200190815260200160002060006101000a81548160ff021916908315150217905550620001f36200026260201b60201c565b73ffffffffffffffffffffffffffffffffffffffff168273ffffffffffffffffffffffffffffffffffffffff16847f2f8788117e7eff1d82e926ec794901d17c78024a50270940304540a733656f0d60405160405180910390a4600190506200025c565b600090505b92915050565b600033905090565b6200027c8282620002c660201b60201c565b620002c25780826040517fe2517d3f000000000000000000000000000000000000000000000000000000008152600401620002b992919062000390565b60405180910390fd5b5050565b600080600084815260200190815260200160002060000160008373ffffffffffffffffffffffffffffffffffffffff1673ffffffffffffffffffffffffffffffffffffffff16815260200190815260200160002060009054906101000a900460ff16905092915050565b600073ffffffffffffffffffffffffffffffffffffffff82169050919050565b60006200035d8262000330565b9050919050565b6200036f8162000350565b82525050565b6000819050919050565b6200038a8162000375565b82525050565b6000604082019050620003a7600083018562000364565b620003b660208301846200037f565b9392505050565b611a6a80620003cd6000396000f3fe608060405234801561001057600080fd5b506004361061010a5760003560e01c80636a1972bd116100a257806391d148541161007157806391d14854146102ca578063a217fddf146102fa578063c48b0baa14610318578063d547741f14610336578063d5ebd3a4146103525761010a565b80636a1972bd1461024257806375b238fc1461027257806386785a6f146102905780638736381a146102ac5761010a565b8063248a9ca3116100de578063248a9ca3146101a75780632f2ff15d146101d757806336568abe146101f3578063474da79a1461020f5761010a565b8062cfa86f1461010f57806301ffc9a71461012b5780630588565f1461015b5780631cea013a14610177575b600080fd5b61012960048036038101906101249190611010565b61036e565b005b610145600480360381019061014091906110c4565b610572565b604051610152919061110c565b60405180910390f35b61017560048036038101906101709190611127565b6105ec565b005b610191600480360381019061018c9190611127565b610682565b60405161019e919061121c565b60405180910390f35b6101c160048036038101906101bc9190611274565b610719565b6040516101ce91906112b0565b60405180910390f35b6101f160048036038101906101ec91906112cb565b610738565b005b61020d600480360381019061020891906112cb565b61075a565b005b61022960048036038101906102249190611337565b6107d5565b6040516102399493929190611401565b60405180910390f35b61025c6004803603810190610257919061144d565b6108ba565b604051610269919061148d565b60405180910390f35b61027a6108eb565b60405161028791906112b0565b60405180910390f35b6102aa60048036038101906102a59190611127565b61090f565b005b6102b46109a5565b6040516102c1919061148d565b60405180910390f35b6102e460048036038101906102df91906112cb565b6109ab565b6040516102f1919061110c565b60405180910390f35b610302610a15565b60405161030f91906112b0565b60405180910390f35b610320610a1c565b60405161032d91906112b0565b60405180910390f35b610350600480360381019061034b91906112cb565b610a40565b005b61036c600480360381019061036791906114a8565b610a62565b005b6103987f014df5ee2861d7f34562399ffa112fc59b51f810d2b875c3609ba0c31ac873d0336109ab565b6103d7576040517f08c379a00000000000000000000000000000000000000000000000000000000081526004016103ce90611550565b60405180910390fd5b600360008154809291906103ea9061159f565b919050555060405180608001604052808381526020014281526020016000151581526020018273ffffffffffffffffffffffffffffffffffffffff16815250600160006003548152602001908152602001600020600082015181600001908161045391906117f3565b506020820151816001015560408201518160020160006101000a81548160ff02191690831515021790555060608201518160020160016101000a81548173ffffffffffffffffffffffffffffffffffffffff021916908373ffffffffffffffffffffffffffffffffffffffff160217905550905050600260008273ffffffffffffffffffffffffffffffffffffffff1673ffffffffffffffffffffffffffffffffffffffff16815260200190815260200160002060035490806001815401808255809150506001900390600052602060002001600090919091909150556003547f848e31eceb7456b8afaae2c2d1d23897aee4d30788a50e75ed7f82c6b2314023834284604051610566939291906118c5565b60405180910390a25050565b60007f7965db0b000000000000000000000000000000000000000000000000000000007bffffffffffffffffffffffffffffffffffffffffffffffffffffffff1916827bffffffffffffffffffffffffffffffffffffffffffffffffffffffff191614806105e557506105e482610b9e565b5b9050919050565b6106167fa49807205ce4d355092ef5a8a18f56e8913cf4a201fbe287825b095693c21775336109ab565b610655576040517f08c379a000000000000000000000000000000000000000000000000000000000815260040161064c9061194f565b60405180910390fd5b61067f7f014df5ee2861d7f34562399ffa112fc59b51f810d2b875c3609ba0c31ac873d082610738565b50565b6060600260008373ffffffffffffffffffffffffffffffffffffffff1673ffffffffffffffffffffffffffffffffffffffff16815260200190815260200160002080548060200260200160405190810160405280929190818152602001828054801561070d57602002820191906000526020600020905b8154815260200190600101908083116106f9575b50505050509050919050565b6000806000838152602001908152602001600020600101549050919050565b61074182610719565b61074a81610c08565b6107548383610c1c565b50505050565b610762610d0d565b73ffffffffffffffffffffffffffffffffffffffff168173ffffffffffffffffffffffffffffffffffffffff16146107c6576040517f6697b23200000000000000000000000000000000000000000000000000000000815260040160405180910390fd5b6107d08282610d15565b505050565b60016020528060005260406000206000915090508060000180546107f890611616565b80601f016020809104026020016040519081016040528092919081815260200182805461082490611616565b80156108715780601f1061084657610100808354040283529160200191610871565b820191906000526020600020905b81548152906001019060200180831161085457829003601f168201915b5050505050908060010154908060020160009054906101000a900460ff16908060020160019054906101000a900473ffffffffffffffffffffffffffffffffffffffff16905084565b600260205281600052604060002081815481106108d657600080fd5b90600052602060002001600091509150505481565b7fa49807205ce4d355092ef5a8a18f56e8913cf4a201fbe287825b095693c2177581565b6109397fa49807205ce4d355092ef5a8a18f56e8913cf4a201fbe287825b095693c21775336109ab565b610978576040517f08c379a000000000000000000000000000000000000000000000000000000000815260040161096f9061194f565b60405180910390fd5b6109a27f014df5ee2861d7f34562399ffa112fc59b51f810d2b875c3609ba0c31ac873d082610a40565b50565b60035481565b600080600084815260200190815260200160002060000160008373ffffffffffffffffffffffffffffffffffffffff1673ffffffffffffffffffffffffffffffffffffffff16815260200190815260200160002060009054906101000a900460ff16905092915050565b6000801b81565b7f014df5ee2861d7f34562399ffa112fc59b51f810d2b875c3609ba0c31ac873d081565b610a4982610719565b610a5281610c08565b610a5c8383610d15565b50505050565b610a8c7f014df5ee2861d7f34562399ffa112fc59b51f810d2b875c3609ba0c31ac873d0336109ab565b610acb576040517f08c379a0000000000000000000000000000000000000000000000000000000008152600401610ac290611550565b60405180910390fd5b600354821115610b10576040517f08c379a0000000000000000000000000000000000000000000000000000000008152600401610b07906119bb565b60405180910390fd5b600060016000848152602001908152602001600020905081816000019081610b3891906117f3565b5042816001018190555060018160020160006101000a81548160ff021916908315150217905550827f6f65ccc75e3c35412092cd4c93274f9fe3c5e9fd0ccca8898abef125adfae1438342604051610b919291906119db565b60405180910390a2505050565b60007f01ffc9a7000000000000000000000000000000000000000000000000000000007bffffffffffffffffffffffffffffffffffffffffffffffffffffffff1916827bffffffffffffffffffffffffffffffffffffffffffffffffffffffff1916149050919050565b610c1981610c14610d0d565b610e07565b50565b6000610c2883836109ab565b610d0257600160008085815260200190815260200160002060000160008473ffffffffffffffffffffffffffffffffffffffff1673ffffffffffffffffffffffffffffffffffffffff16815260200190815260200160002060006101000a81548160ff021916908315150217905550610c9f610d0d565b73ffffffffffffffffffffffffffffffffffffffff168273ffffffffffffffffffffffffffffffffffffffff16847f2f8788117e7eff1d82e926ec794901d17c78024a50270940304540a733656f0d60405160405180910390a460019050610d07565b600090505b92915050565b600033905090565b6000610d2183836109ab565b15610dfc57600080600085815260200190815260200160002060000160008473ffffffffffffffffffffffffffffffffffffffff1673ffffffffffffffffffffffffffffffffffffffff16815260200190815260200160002060006101000a81548160ff021916908315150217905550610d99610d0d565b73ffffffffffffffffffffffffffffffffffffffff168273ffffffffffffffffffffffffffffffffffffffff16847ff6391f5c32d9c69d2a47ea670b442974b53935d1edc7fd64eb21e047a839171b60405160405180910390a460019050610e01565b600090505b92915050565b610e1182826109ab565b610e545780826040517fe2517d3f000000000000000000000000000000000000000000000000000000008152600401610e4b929190611a0b565b60405180910390fd5b5050565b6000604051905090565b600080fd5b600080fd5b600080fd5b600080fd5b6000601f19601f8301169050919050565b7f4e487b7100000000000000000000000000000000000000000000000000000000600052604160045260246000fd5b610ebf82610e76565b810181811067ffffffffffffffff82111715610ede57610edd610e87565b5b80604052505050565b6000610ef1610e58565b9050610efd8282610eb6565b919050565b600067ffffffffffffffff821115610f1d57610f1c610e87565b5b610f2682610e76565b9050602081019050919050565b82818337600083830152505050565b6000610f55610f5084610f02565b610ee7565b905082815260208101848484011115610f7157610f70610e71565b5b610f7c848285610f33565b509392505050565b600082601f830112610f9957610f98610e6c565b5b8135610fa9848260208601610f42565b91505092915050565b600073ffffffffffffffffffffffffffffffffffffffff82169050919050565b6000610fdd82610fb2565b9050919050565b610fed81610fd2565b8114610ff857600080fd5b50565b60008135905061100a81610fe4565b92915050565b6000806040838503121561102757611026610e62565b5b600083013567ffffffffffffffff81111561104557611044610e67565b5b61105185828601610f84565b925050602061106285828601610ffb565b9150509250929050565b60007fffffffff0000000000000000000000000000000000000000000000000000000082169050919050565b6110a18161106c565b81146110ac57600080fd5b50565b6000813590506110be81611098565b92915050565b6000602082840312156110da576110d9610e62565b5b60006110e8848285016110af565b91505092915050565b60008115159050919050565b611106816110f1565b82525050565b600060208201905061112160008301846110fd565b92915050565b60006020828403121561113d5761113c610e62565b5b600061114b84828501610ffb565b91505092915050565b600081519050919050565b600082825260208201905092915050565b6000819050602082019050919050565b6000819050919050565b61119381611180565b82525050565b60006111a5838361118a565b60208301905092915050565b6000602082019050919050565b60006111c982611154565b6111d3818561115f565b93506111de83611170565b8060005b8381101561120f5781516111f68882611199565b9750611201836111b1565b9250506001810190506111e2565b5085935050505092915050565b6000602082019050818103600083015261123681846111be565b905092915050565b6000819050919050565b6112518161123e565b811461125c57600080fd5b50565b60008135905061126e81611248565b92915050565b60006020828403121561128a57611289610e62565b5b60006112988482850161125f565b91505092915050565b6112aa8161123e565b82525050565b60006020820190506112c560008301846112a1565b92915050565b600080604083850312156112e2576112e1610e62565b5b60006112f08582860161125f565b925050602061130185828601610ffb565b9150509250929050565b61131481611180565b811461131f57600080fd5b50565b6000813590506113318161130b565b92915050565b60006020828403121561134d5761134c610e62565b5b600061135b84828501611322565b91505092915050565b600081519050919050565b600082825260208201905092915050565b60005b8381101561139e578082015181840152602081019050611383565b60008484015250505050565b60006113b582611364565b6113bf818561136f565b93506113cf818560208601611380565b6113d881610e76565b840191505092915050565b6113ec81611180565b82525050565b6113fb81610fd2565b82525050565b6000608082019050818103600083015261141b81876113aa565b905061142a60208301866113e3565b61143760408301856110fd565b61144460608301846113f2565b95945050505050565b6000806040838503121561146457611463610e62565b5b600061147285828601610ffb565b925050602061148385828601611322565b9150509250929050565b60006020820190506114a260008301846113e3565b92915050565b600080604083850312156114bf576114be610e62565b5b60006114cd85828601611322565b925050602083013567ffffffffffffffff8111156114ee576114ed610e67565b5b6114fa85828601610f84565b9150509250929050565b7f43616c6c6572206973206e6f742061206e6f7461727900000000000000000000600082015250565b600061153a60168361136f565b915061154582611504565b602082019050919050565b600060208201905081810360008301526115698161152d565b9050919050565b7f4e487b7100000000000000000000000000000000000000000000000000000000600052601160045260246000fd5b60006115aa82611180565b91507fffffffffffffffffffffffffffffffffffffffffffffffffffffffffffffffff82036115dc576115db611570565b5b600182019050919050565b7f4e487b7100000000000000000000000000000000000000000000000000000000600052602260045260246000fd5b6000600282049050600182168061162e57607f821691505b602082108103611641576116406115e7565b5b50919050565b60008190508160005260206000209050919050565b60006020601f8301049050919050565b600082821b905092915050565b6000600883026116a97fffffffffffffffffffffffffffffffffffffffffffffffffffffffffffffffff8261166c565b6116b3868361166c565b95508019841693508086168417925050509392505050565b6000819050919050565b60006116f06116eb6116e684611180565b6116cb565b611180565b9050919050565b6000819050919050565b61170a836116d5565b61171e611716826116f7565b848454611679565b825550505050565b600090565b611733611726565b61173e818484611701565b505050565b5b818110156117625761175760008261172b565b600181019050611744565b5050565b601f8211156117a75761177881611647565b6117818461165c565b81016020851015611790578190505b6117a461179c8561165c565b830182611743565b50505b505050565b600082821c905092915050565b60006117ca600019846008026117ac565b1980831691505092915050565b60006117e383836117b9565b9150826002028217905092915050565b6117fc82611364565b67ffffffffffffffff81111561181557611814610e87565b5b61181f8254611616565b61182a828285611766565b600060209050601f83116001811461185d576000841561184b578287015190505b61185585826117d7565b8655506118bd565b601f19841661186b86611647565b60005b828110156118935784890151825560018201915060208501945060208101905061186e565b868310156118b057848901516118ac601f8916826117b9565b8355505b6001600288020188555050505b505050505050565b600060608201905081810360008301526118df81866113aa565b90506118ee60208301856113e3565b6118fb60408301846113f2565b949350505050565b7f43616c6c6572206973206e6f7420616e2061646d696e00000000000000000000600082015250565b600061193960168361136f565b915061194482611903565b602082019050919050565b600060208201905081810360008301526119688161192c565b9050919050565b7f496e76616c696420636f6e74726163742049442e000000000000000000000000600082015250565b60006119a560148361136f565b91506119b08261196f565b602082019050919050565b600060208201905081810360008301526119d481611998565b9050919050565b600060408201905081810360008301526119f581856113aa565b9050611a0460208301846113e3565b9392505050565b6000604082019050611a2060008301856113f2565b611a2d60208301846112a1565b939250505056fea26469706673582212205a2e67675ba9ca000a88e815fc5d8e6d4db7a6f39df609fb81e084e3b739f0de64736f6c63430008180033","opcodes":"PUSH1 0x80 PUSH1 0x40 MSTORE CALLVALUE DUP1 ISZERO PUSH3 0x11 JUMPI PUSH1 0x0 DUP1 REVERT JUMPDEST POP PUSH3 0x27 PUSH1 0x0 DUP1 SHL CALLER PUSH3 0x7F PUSH1 0x20 SHL PUSH1 0x20 SHR JUMP JUMPDEST PUSH3 0x79 PUSH32 0x14DF5EE2861D7F34562399FFA112FC59B51F810D2B875C3609BA0C31AC873D0 PUSH32 0xA49807205CE4D355092EF5A8A18F56E8913CF4A201FBE287825B095693C21775 PUSH3 0xB9 PUSH1 0x20 SHL PUSH1 0x20 SHR JUMP JUMPDEST PUSH3 0x3BD JUMP JUMPDEST PUSH3 0x90 DUP3 PUSH3 0x11C PUSH1 0x20 SHL PUSH1 0x20 SHR JUMP JUMPDEST PUSH3 0xA1 DUP2 PUSH3 0x13B PUSH1 0x20 SHL PUSH1 0x20 SHR JUMP JUMPDEST PUSH3 0xB3 DUP4 DUP4 PUSH3 0x15F PUSH1 0x20 SHL PUSH1 0x20 SHR JUMP JUMPDEST POP POP POP POP JUMP JUMPDEST PUSH1 0x0 PUSH3 0xCC DUP4 PUSH3 0x11C PUSH1 0x20 SHL PUSH1 0x20 SHR JUMP JUMPDEST SWAP1 POP DUP2 PUSH1 0x0 DUP1 DUP6 DUP2 MSTORE PUSH1 0x20 ADD SWAP1 DUP2 MSTORE PUSH1 0x20 ADD PUSH1 0x0 KECCAK256 PUSH1 0x1 ADD DUP2 SWAP1 SSTORE POP DUP2 DUP2 DUP5 PUSH32 0xBD79B86FFE0AB8E8776151514217CD7CACD52C909F66475C3AF44E129F0B00FF PUSH1 0x40 MLOAD PUSH1 0x40 MLOAD DUP1 SWAP2 SUB SWAP1 LOG4 POP POP POP JUMP JUMPDEST PUSH1 0x0 DUP1 PUSH1 0x0 DUP4 DUP2 MSTORE PUSH1 0x20 ADD SWAP1 DUP2 MSTORE PUSH1 0x20 ADD PUSH1 0x0 KECCAK256 PUSH1 0x1 ADD SLOAD SWAP1 POP SWAP2 SWAP1 POP JUMP JUMPDEST PUSH3 0x15C DUP2 PUSH3 0x150 PUSH3 0x262 PUSH1 0x20 SHL PUSH1 0x20 SHR JUMP JUMPDEST PUSH3 0x26A PUSH1 0x20 SHL PUSH1 0x20 SHR JUMP JUMPDEST POP JUMP JUMPDEST PUSH1 0x0 PUSH3 0x173 DUP4 DUP4 PUSH3 0x2C6 PUSH1 0x20 SHL PUSH1 0x20 SHR JUMP JUMPDEST PUSH3 0x257 JUMPI PUSH1 0x1 PUSH1 0x0 DUP1 DUP6 DUP2 MSTORE PUSH1 0x20 ADD SWAP1 DUP2 MSTORE PUSH1 0x20 ADD PUSH1 0x0 KECCAK256 PUSH1 0x0 ADD PUSH1 0x0 DUP5 PUSH20 0xFFFFFFFFFFFFFFFFFFFFFFFFFFFFFFFFFFFFFFFF AND PUSH20 0xFFFFFFFFFFFFFFFFFFFFFFFFFFFFFFFFFFFFFFFF AND DUP2 MSTORE PUSH1 0x20 ADD SWAP1 DUP2 MSTORE PUSH1 0x20 ADD PUSH1 0x0 KECCAK256 PUSH1 0x0 PUSH2 0x100 EXP DUP2 SLOAD DUP2 PUSH1 0xFF MUL NOT AND SWAP1 DUP4 ISZERO ISZERO MUL OR SWAP1 SSTORE POP PUSH3 0x1F3 PUSH3 0x262 PUSH1 0x20 SHL PUSH1 0x20 SHR JUMP JUMPDEST PUSH20 0xFFFFFFFFFFFFFFFFFFFFFFFFFFFFFFFFFFFFFFFF AND DUP3 PUSH20 0xFFFFFFFFFFFFFFFFFFFFFFFFFFFFFFFFFFFFFFFF AND DUP5 PUSH32 0x2F8788117E7EFF1D82E926EC794901D17C78024A50270940304540A733656F0D PUSH1 0x40 MLOAD PUSH1 0x40 MLOAD DUP1 SWAP2 SUB SWAP1 LOG4 PUSH1 0x1 SWAP1 POP PUSH3 0x25C JUMP JUMPDEST PUSH1 0x0 SWAP1 POP JUMPDEST SWAP3 SWAP2 POP POP JUMP JUMPDEST PUSH1 0x0 CALLER SWAP1 POP SWAP1 JUMP JUMPDEST PUSH3 0x27C DUP3 DUP3 PUSH3 0x2C6 PUSH1 0x20 SHL PUSH1 0x20 SHR JUMP JUMPDEST PUSH3 0x2C2 JUMPI DUP1 DUP3 PUSH1 0x40 MLOAD PUSH32 0xE2517D3F00000000000000000000000000000000000000000000000000000000 DUP2 MSTORE PUSH1 0x4 ADD PUSH3 0x2B9 SWAP3 SWAP2 SWAP1 PUSH3 0x390 JUMP JUMPDEST PUSH1 0x40 MLOAD DUP1 SWAP2 SUB SWAP1 REVERT JUMPDEST POP POP JUMP JUMPDEST PUSH1 0x0 DUP1 PUSH1 0x0 DUP5 DUP2 MSTORE PUSH1 0x20 ADD SWAP1 DUP2 MSTORE PUSH1 0x20 ADD PUSH1 0x0 KECCAK256 PUSH1 0x0 ADD PUSH1 0x0 DUP4 PUSH20 0xFFFFFFFFFFFFFFFFFFFFFFFFFFFFFFFFFFFFFFFF AND PUSH20 0xFFFFFFFFFFFFFFFFFFFFFFFFFFFFFFFFFFFFFFFF AND DUP2 MSTORE PUSH1 0x20 ADD SWAP1 DUP2 MSTORE PUSH1 0x20 ADD PUSH1 0x0 KECCAK256 PUSH1 0x0 SWAP1 SLOAD SWAP1 PUSH2 0x100 EXP SWAP1 DIV PUSH1 0xFF AND SWAP1 POP SWAP3 SWAP2 POP POP JUMP JUMPDEST PUSH1 0x0 PUSH20 0xFFFFFFFFFFFFFFFFFFFFFFFFFFFFFFFFFFFFFFFF DUP3 AND SWAP1 POP SWAP2 SWAP1 POP JUMP JUMPDEST PUSH1 0x0 PUSH3 0x35D DUP3 PUSH3 0x330 JUMP JUMPDEST SWAP1 POP SWAP2 SWAP1 POP JUMP JUMPDEST PUSH3 0x36F DUP2 PUSH3 0x350 JUMP JUMPDEST DUP3 MSTORE POP POP JUMP JUMPDEST PUSH1 0x0 DUP2 SWAP1 POP SWAP2 SWAP1 POP JUMP JUMPDEST PUSH3 0x38A DUP2 PUSH3 0x375 JUMP JUMPDEST DUP3 MSTORE POP POP JUMP JUMPDEST PUSH1 0x0 PUSH1 0x40 DUP3 ADD SWAP1 POP PUSH3 0x3A7 PUSH1 0x0 DUP4 ADD DUP6 PUSH3 0x364 JUMP JUMPDEST PUSH3 0x3B6 PUSH1 0x20 DUP4 ADD DUP5 PUSH3 0x37F JUMP JUMPDEST SWAP4 SWAP3 POP POP POP JUMP JUMPDEST PUSH2 0x1A6A DUP1 PUSH3 0x3CD PUSH1 0x0 CODECOPY PUSH1 0x0 RETURN INVALID PUSH1 0x80 PUSH1 0x40 MSTORE CALLVALUE DUP1 ISZERO PUSH2 0x10 JUMPI PUSH1 0x0 DUP1 REVERT JUMPDEST POP PUSH1 0x4 CALLDATASIZE LT PUSH2 0x10A JUMPI PUSH1 0x0 CALLDATALOAD PUSH1 0xE0 SHR DUP1 PUSH4 0x6A1972BD GT PUSH2 0xA2 JUMPI DUP1 PUSH4 0x91D14854 GT PUSH2 0x71 JUMPI DUP1 PUSH4 0x91D14854 EQ PUSH2 0x2CA JUMPI DUP1 PUSH4 0xA217FDDF EQ PUSH2 0x2FA JUMPI DUP1 PUSH4 0xC48B0BAA EQ PUSH2 0x318 JUMPI DUP1 PUSH4 0xD547741F EQ PUSH2 0x336 JUMPI DUP1 PUSH4 0xD5EBD3A4 EQ PUSH2 0x352 JUMPI PUSH2 0x10A JUMP JUMPDEST DUP1 PUSH4 0x6A1972BD EQ PUSH2 0x242 JUMPI DUP1 PUSH4 0x75B238FC EQ PUSH2 0x272 JUMPI DUP1 PUSH4 0x86785A6F EQ PUSH2 0x290 JUMPI DUP1 PUSH4 0x8736381A EQ PUSH2 0x2AC JUMPI PUSH2 0x10A JUMP JUMPDEST DUP1 PUSH4 0x248A9CA3 GT PUSH2 0xDE JUMPI DUP1 PUSH4 0x248A9CA3 EQ PUSH2 0x1A7 JUMPI DUP1 PUSH4 0x2F2FF15D EQ PUSH2 0x1D7 JUMPI DUP1 PUSH4 0x36568ABE EQ PUSH2 0x1F3 JUMPI DUP1 PUSH4 0x474DA79A EQ PUSH2 0x20F JUMPI PUSH2 0x10A JUMP JUMPDEST DUP1 PUSH3 0xCFA86F EQ PUSH2 0x10F JUMPI DUP1 PUSH4 0x1FFC9A7 EQ PUSH2 0x12B JUMPI DUP1 PUSH4 0x588565F EQ PUSH2 0x15B JUMPI DUP1 PUSH4 0x1CEA013A EQ PUSH2 0x177 JUMPI JUMPDEST PUSH1 0x0 DUP1 REVERT JUMPDEST PUSH2 0x129 PUSH1 0x4 DUP1 CALLDATASIZE SUB DUP2 ADD SWAP1 PUSH2 0x124 SWAP2 SWAP1 PUSH2 0x1010 JUMP JUMPDEST PUSH2 0x36E JUMP JUMPDEST STOP JUMPDEST PUSH2 0x145 PUSH1 0x4 DUP1 CALLDATASIZE SUB DUP2 ADD SWAP1 PUSH2 0x140 SWAP2 SWAP1 PUSH2 0x10C4 JUMP JUMPDEST PUSH2 0x572 JUMP JUMPDEST PUSH1 0x40 MLOAD PUSH2 0x152 SWAP2 SWAP1 PUSH2 0x110C JUMP JUMPDEST PUSH1 0x40 MLOAD DUP1 SWAP2 SUB SWAP1 RETURN JUMPDEST PUSH2 0x175 PUSH1 0x4 DUP1 CALLDATASIZE SUB DUP2 ADD SWAP1 PUSH2 0x170 SWAP2 SWAP1 PUSH2 0x1127 JUMP JUMPDEST PUSH2 0x5EC JUMP JUMPDEST STOP JUMPDEST PUSH2 0x191 PUSH1 0x4 DUP1 CALLDATASIZE SUB DUP2 ADD SWAP1 PUSH2 0x18C SWAP2 SWAP1 PUSH2 0x1127 JUMP JUMPDEST PUSH2 0x682 JUMP JUMPDEST PUSH1 0x40 MLOAD PUSH2 0x19E SWAP2 SWAP1 PUSH2 0x121C JUMP JUMPDEST PUSH1 0x40 MLOAD DUP1 SWAP2 SUB SWAP1 RETURN JUMPDEST PUSH2 0x1C1 PUSH1 0x4 DUP1 CALLDATASIZE SUB DUP2 ADD SWAP1 PUSH2 0x1BC SWAP2 SWAP1 PUSH2 0x1274 JUMP JUMPDEST PUSH2 0x719 JUMP JUMPDEST PUSH1 0x40 MLOAD PUSH2 0x1CE SWAP2 SWAP1 PUSH2 0x12B0 JUMP JUMPDEST PUSH1 0x40 MLOAD DUP1 SWAP2 SUB SWAP1 RETURN JUMPDEST PUSH2 0x1F1 PUSH1 0x4 DUP1 CALLDATASIZE SUB DUP2 ADD SWAP1 PUSH2 0x1EC SWAP2 SWAP1 PUSH2 0x12CB JUMP JUMPDEST PUSH2 0x738 JUMP JUMPDEST STOP JUMPDEST PUSH2 0x20D PUSH1 0x4 DUP1 CALLDATASIZE SUB DUP2 ADD SWAP1 PUSH2 0x208 SWAP2 SWAP1 PUSH2 0x12CB JUMP JUMPDEST PUSH2 0x75A JUMP JUMPDEST STOP JUMPDEST PUSH2 0x229 PUSH1 0x4 DUP1 CALLDATASIZE SUB DUP2 ADD SWAP1 PUSH2 0x224 SWAP2 SWAP1 PUSH2 0x1337 JUMP JUMPDEST PUSH2 0x7D5 JUMP JUMPDEST PUSH1 0x40 MLOAD PUSH2 0x239 SWAP5 SWAP4 SWAP3 SWAP2 SWAP1 PUSH2 0x1401 JUMP JUMPDEST PUSH1 0x40 MLOAD DUP1 SWAP2 SUB SWAP1 RETURN JUMPDEST PUSH2 0x25C PUSH1 0x4 DUP1 CALLDATASIZE SUB DUP2 ADD SWAP1 PUSH2 0x257 SWAP2 SWAP1 PUSH2 0x144D JUMP JUMPDEST PUSH2 0x8BA JUMP JUMPDEST PUSH1 0x40 MLOAD PUSH2 0x269 SWAP2 SWAP1 PUSH2 0x148D JUMP JUMPDEST PUSH1 0x40 MLOAD DUP1 SWAP2 SUB SWAP1 RETURN JUMPDEST PUSH2 0x27A PUSH2 0x8EB JUMP JUMPDEST PUSH1 0x40 MLOAD PUSH2 0x287 SWAP2 SWAP1 PUSH2 0x12B0 JUMP JUMPDEST PUSH1 0x40 MLOAD DUP1 SWAP2 SUB SWAP1 RETURN JUMPDEST PUSH2 0x2AA PUSH1 0x4 DUP1 CALLDATASIZE SUB DUP2 ADD SWAP1 PUSH2 0x2A5 SWAP2 SWAP1 PUSH2 0x1127 JUMP JUMPDEST PUSH2 0x90F JUMP JUMPDEST STOP JUMPDEST PUSH2 0x2B4 PUSH2 0x9A5 JUMP JUMPDEST PUSH1 0x40 MLOAD PUSH2 0x2C1 SWAP2 SWAP1 PUSH2 0x148D JUMP JUMPDEST PUSH1 0x40 MLOAD DUP1 SWAP2 SUB SWAP1 RETURN JUMPDEST PUSH2 0x2E4 PUSH1 0x4 DUP1 CALLDATASIZE SUB DUP2 ADD SWAP1 PUSH2 0x2DF SWAP2 SWAP1 PUSH2 0x12CB JUMP JUMPDEST PUSH2 0x9AB JUMP JUMPDEST PUSH1 0x40 MLOAD PUSH2 0x2F1 SWAP2 SWAP1 PUSH2 0x110C JUMP JUMPDEST PUSH1 0x40 MLOAD DUP1 SWAP2 SUB SWAP1 RETURN JUMPDEST PUSH2 0x302 PUSH2 0xA15 JUMP JUMPDEST PUSH1 0x40 MLOAD PUSH2 0x30F SWAP2 SWAP1 PUSH2 0x12B0 JUMP JUMPDEST PUSH1 0x40 MLOAD DUP1 SWAP2 SUB SWAP1 RETURN JUMPDEST PUSH2 0x320 PUSH2 0xA1C JUMP JUMPDEST PUSH1 0x40 MLOAD PUSH2 0x32D SWAP2 SWAP1 PUSH2 0x12B0 JUMP JUMPDEST PUSH1 0x40 MLOAD DUP1 SWAP2 SUB SWAP1 RETURN JUMPDEST PUSH2 0x350 PUSH1 0x4 DUP1 CALLDATASIZE SUB DUP2 ADD SWAP1 PUSH2 0x34B SWAP2 SWAP1 PUSH2 0x12CB JUMP JUMPDEST PUSH2 0xA40 JUMP JUMPDEST STOP JUMPDEST PUSH2 0x36C PUSH1 0x4 DUP1 CALLDATASIZE SUB DUP2 ADD SWAP1 PUSH2 0x367 SWAP2 SWAP1 PUSH2 0x14A8 JUMP JUMPDEST PUSH2 0xA62 JUMP JUMPDEST STOP JUMPDEST PUSH2 0x398 PUSH32 0x14DF5EE2861D7F34562399FFA112FC59B51F810D2B875C3609BA0C31AC873D0 CALLER PUSH2 0x9AB JUMP JUMPDEST PUSH2 0x3D7 JUMPI PUSH1 0x40 MLOAD PUSH32 0x8C379A000000000000000000000000000000000000000000000000000000000 DUP2 MSTORE PUSH1 0x4 ADD PUSH2 0x3CE SWAP1 PUSH2 0x1550 JUMP JUMPDEST PUSH1 0x40 MLOAD DUP1 SWAP2 SUB SWAP1 REVERT JUMPDEST PUSH1 0x3 PUSH1 0x0 DUP2 SLOAD DUP1 SWAP3 SWAP2 SWAP1 PUSH2 0x3EA SWAP1 PUSH2 0x159F JUMP JUMPDEST SWAP2 SWAP1 POP SSTORE POP PUSH1 0x40 MLOAD DUP1 PUSH1 0x80 ADD PUSH1 0x40 MSTORE DUP1 DUP4 DUP2 MSTORE PUSH1 0x20 ADD TIMESTAMP DUP2 MSTORE PUSH1 0x20 ADD PUSH1 0x0 ISZERO ISZERO DUP2 MSTORE PUSH1 0x20 ADD DUP3 PUSH20 0xFFFFFFFFFFFFFFFFFFFFFFFFFFFFFFFFFFFFFFFF AND DUP2 MSTORE POP PUSH1 0x1 PUSH1 0x0 PUSH1 0x3 SLOAD DUP2 MSTORE PUSH1 0x20 ADD SWAP1 DUP2 MSTORE PUSH1 0x20 ADD PUSH1 0x0 KECCAK256 PUSH1 0x0 DUP3 ADD MLOAD DUP2 PUSH1 0x0 ADD SWAP1 DUP2 PUSH2 0x453 SWAP2 SWAP1 PUSH2 0x17F3 JUMP JUMPDEST POP PUSH1 0x20 DUP3 ADD MLOAD DUP2 PUSH1 0x1 ADD SSTORE PUSH1 0x40 DUP3 ADD MLOAD DUP2 PUSH1 0x2 ADD PUSH1 0x0 PUSH2 0x100 EXP DUP2 SLOAD DUP2 PUSH1 0xFF MUL NOT AND SWAP1 DUP4 ISZERO ISZERO MUL OR SWAP1 SSTORE POP PUSH1 0x60 DUP3 ADD MLOAD DUP2 PUSH1 0x2 ADD PUSH1 0x1 PUSH2 0x100 EXP DUP2 SLOAD DUP2 PUSH20 0xFFFFFFFFFFFFFFFFFFFFFFFFFFFFFFFFFFFFFFFF MUL NOT AND SWAP1 DUP4 PUSH20 0xFFFFFFFFFFFFFFFFFFFFFFFFFFFFFFFFFFFFFFFF AND MUL OR SWAP1 SSTORE POP SWAP1 POP POP PUSH1 0x2 PUSH1 0x0 DUP3 PUSH20 0xFFFFFFFFFFFFFFFFFFFFFFFFFFFFFFFFFFFFFFFF AND PUSH20 0xFFFFFFFFFFFFFFFFFFFFFFFFFFFFFFFFFFFFFFFF AND DUP2 MSTORE PUSH1 0x20 ADD SWAP1 DUP2 MSTORE PUSH1 0x20 ADD PUSH1 0x0 KECCAK256 PUSH1 0x3 SLOAD SWAP1 DUP1 PUSH1 0x1 DUP2 SLOAD ADD DUP1 DUP3 SSTORE DUP1 SWAP2 POP POP PUSH1 0x1 SWAP1 SUB SWAP1 PUSH1 0x0 MSTORE PUSH1 0x20 PUSH1 0x0 KECCAK256 ADD PUSH1 0x0 SWAP1 SWAP2 SWAP1 SWAP2 SWAP1 SWAP2 POP SSTORE PUSH1 0x3 SLOAD PUSH32 0x848E31ECEB7456B8AFAAE2C2D1D23897AEE4D30788A50E75ED7F82C6B2314023 DUP4 TIMESTAMP DUP5 PUSH1 0x40 MLOAD PUSH2 0x566 SWAP4 SWAP3 SWAP2 SWAP1 PUSH2 0x18C5 JUMP JUMPDEST PUSH1 0x40 MLOAD DUP1 SWAP2 SUB SWAP1 LOG2 POP POP JUMP JUMPDEST PUSH1 0x0 PUSH32 0x7965DB0B00000000000000000000000000000000000000000000000000000000 PUSH28 0xFFFFFFFFFFFFFFFFFFFFFFFFFFFFFFFFFFFFFFFFFFFFFFFFFFFFFFFF NOT AND DUP3 PUSH28 0xFFFFFFFFFFFFFFFFFFFFFFFFFFFFFFFFFFFFFFFFFFFFFFFFFFFFFFFF NOT AND EQ DUP1 PUSH2 0x5E5 JUMPI POP PUSH2 0x5E4 DUP3 PUSH2 0xB9E JUMP JUMPDEST JUMPDEST SWAP1 POP SWAP2 SWAP1 POP JUMP JUMPDEST PUSH2 0x616 PUSH32 0xA49807205CE4D355092EF5A8A18F56E8913CF4A201FBE287825B095693C21775 CALLER PUSH2 0x9AB JUMP JUMPDEST PUSH2 0x655 JUMPI PUSH1 0x40 MLOAD PUSH32 0x8C379A000000000000000000000000000000000000000000000000000000000 DUP2 MSTORE PUSH1 0x4 ADD PUSH2 0x64C SWAP1 PUSH2 0x194F JUMP JUMPDEST PUSH1 0x40 MLOAD DUP1 SWAP2 SUB SWAP1 REVERT JUMPDEST PUSH2 0x67F PUSH32 0x14DF5EE2861D7F34562399FFA112FC59B51F810D2B875C3609BA0C31AC873D0 DUP3 PUSH2 0x738 JUMP JUMPDEST POP JUMP JUMPDEST PUSH1 0x60 PUSH1 0x2 PUSH1 0x0 DUP4 PUSH20 0xFFFFFFFFFFFFFFFFFFFFFFFFFFFFFFFFFFFFFFFF AND PUSH20 0xFFFFFFFFFFFFFFFFFFFFFFFFFFFFFFFFFFFFFFFF AND DUP2 MSTORE PUSH1 0x20 ADD SWAP1 DUP2 MSTORE PUSH1 0x20 ADD PUSH1 0x0 KECCAK256 DUP1 SLOAD DUP1 PUSH1 0x20 MUL PUSH1 0x20 ADD PUSH1 0x40 MLOAD SWAP1 DUP2 ADD PUSH1 0x40 MSTORE DUP1 SWAP3 SWAP2 SWAP1 DUP2 DUP2 MSTORE PUSH1 0x20 ADD DUP3 DUP1 SLOAD DUP1 ISZERO PUSH2 0x70D JUMPI PUSH1 0x20 MUL DUP3 ADD SWAP2 SWAP1 PUSH1 0x0 MSTORE PUSH1 0x20 PUSH1 0x0 KECCAK256 SWAP1 JUMPDEST DUP2 SLOAD DUP2 MSTORE PUSH1 0x20 ADD SWAP1 PUSH1 0x1 ADD SWAP1 DUP1 DUP4 GT PUSH2 0x6F9 JUMPI JUMPDEST POP POP POP POP POP SWAP1 POP SWAP2 SWAP1 POP JUMP JUMPDEST PUSH1 0x0 DUP1 PUSH1 0x0 DUP4 DUP2 MSTORE PUSH1 0x20 ADD SWAP1 DUP2 MSTORE PUSH1 0x20 ADD PUSH1 0x0 KECCAK256 PUSH1 0x1 ADD SLOAD SWAP1 POP SWAP2 SWAP1 POP JUMP JUMPDEST PUSH2 0x741 DUP3 PUSH2 0x719 JUMP JUMPDEST PUSH2 0x74A DUP2 PUSH2 0xC08 JUMP JUMPDEST PUSH2 0x754 DUP4 DUP4 PUSH2 0xC1C JUMP JUMPDEST POP POP POP POP JUMP JUMPDEST PUSH2 0x762 PUSH2 0xD0D JUMP JUMPDEST PUSH20 0xFFFFFFFFFFFFFFFFFFFFFFFFFFFFFFFFFFFFFFFF AND DUP2 PUSH20 0xFFFFFFFFFFFFFFFFFFFFFFFFFFFFFFFFFFFFFFFF AND EQ PUSH2 0x7C6 JUMPI PUSH1 0x40 MLOAD PUSH32 0x6697B23200000000000000000000000000000000000000000000000000000000 DUP2 MSTORE PUSH1 0x4 ADD PUSH1 0x40 MLOAD DUP1 SWAP2 SUB SWAP1 REVERT JUMPDEST PUSH2 0x7D0 DUP3 DUP3 PUSH2 0xD15 JUMP JUMPDEST POP POP POP JUMP JUMPDEST PUSH1 0x1 PUSH1 0x20 MSTORE DUP1 PUSH1 0x0 MSTORE PUSH1 0x40 PUSH1 0x0 KECCAK256 PUSH1 0x0 SWAP2 POP SWAP1 POP DUP1 PUSH1 0x0 ADD DUP1 SLOAD PUSH2 0x7F8 SWAP1 PUSH2 0x1616 JUMP JUMPDEST DUP1 PUSH1 0x1F ADD PUSH1 0x20 DUP1 SWAP2 DIV MUL PUSH1 0x20 ADD PUSH1 0x40 MLOAD SWAP1 DUP2 ADD PUSH1 0x40 MSTORE DUP1 SWAP3 SWAP2 SWAP1 DUP2 DUP2 MSTORE PUSH1 0x20 ADD DUP3 DUP1 SLOAD PUSH2 0x824 SWAP1 PUSH2 0x1616 JUMP JUMPDEST DUP1 ISZERO PUSH2 0x871 JUMPI DUP1 PUSH1 0x1F LT PUSH2 0x846 JUMPI PUSH2 0x100 DUP1 DUP4 SLOAD DIV MUL DUP4 MSTORE SWAP2 PUSH1 0x20 ADD SWAP2 PUSH2 0x871 JUMP JUMPDEST DUP3 ADD SWAP2 SWAP1 PUSH1 0x0 MSTORE PUSH1 0x20 PUSH1 0x0 KECCAK256 SWAP1 JUMPDEST DUP2 SLOAD DUP2 MSTORE SWAP1 PUSH1 0x1 ADD SWAP1 PUSH1 0x20 ADD DUP1 DUP4 GT PUSH2 0x854 JUMPI DUP3 SWAP1 SUB PUSH1 0x1F AND DUP3 ADD SWAP2 JUMPDEST POP POP POP POP POP SWAP1 DUP1 PUSH1 0x1 ADD SLOAD SWAP1 DUP1 PUSH1 0x2 ADD PUSH1 0x0 SWAP1 SLOAD SWAP1 PUSH2 0x100 EXP SWAP1 DIV PUSH1 0xFF AND SWAP1 DUP1 PUSH1 0x2 ADD PUSH1 0x1 SWAP1 SLOAD SWAP1 PUSH2 0x100 EXP SWAP1 DIV PUSH20 0xFFFFFFFFFFFFFFFFFFFFFFFFFFFFFFFFFFFFFFFF AND SWAP1 POP DUP5 JUMP JUMPDEST PUSH1 0x2 PUSH1 0x20 MSTORE DUP2 PUSH1 0x0 MSTORE PUSH1 0x40 PUSH1 0x0 KECCAK256 DUP2 DUP2 SLOAD DUP2 LT PUSH2 0x8D6 JUMPI PUSH1 0x0 DUP1 REVERT JUMPDEST SWAP1 PUSH1 0x0 MSTORE PUSH1 0x20 PUSH1 0x0 KECCAK256 ADD PUSH1 0x0 SWAP2 POP SWAP2 POP POP SLOAD DUP2 JUMP JUMPDEST PUSH32 0xA49807205CE4D355092EF5A8A18F56E8913CF4A201FBE287825B095693C21775 DUP2 JUMP JUMPDEST PUSH2 0x939 PUSH32 0xA49807205CE4D355092EF5A8A18F56E8913CF4A201FBE287825B095693C21775 CALLER PUSH2 0x9AB JUMP JUMPDEST PUSH2 0x978 JUMPI PUSH1 0x40 MLOAD PUSH32 0x8C379A000000000000000000000000000000000000000000000000000000000 DUP2 MSTORE PUSH1 0x4 ADD PUSH2 0x96F SWAP1 PUSH2 0x194F JUMP JUMPDEST PUSH1 0x40 MLOAD DUP1 SWAP2 SUB SWAP1 REVERT JUMPDEST PUSH2 0x9A2 PUSH32 0x14DF5EE2861D7F34562399FFA112FC59B51F810D2B875C3609BA0C31AC873D0 DUP3 PUSH2 0xA40 JUMP JUMPDEST POP JUMP JUMPDEST PUSH1 0x3 SLOAD DUP2 JUMP JUMPDEST PUSH1 0x0 DUP1 PUSH1 0x0 DUP5 DUP2 MSTORE PUSH1 0x20 ADD SWAP1 DUP2 MSTORE PUSH1 0x20 ADD PUSH1 0x0 KECCAK256 PUSH1 0x0 ADD PUSH1 0x0 DUP4 PUSH20 0xFFFFFFFFFFFFFFFFFFFFFFFFFFFFFFFFFFFFFFFF AND PUSH20 0xFFFFFFFFFFFFFFFFFFFFFFFFFFFFFFFFFFFFFFFF AND DUP2 MSTORE PUSH1 0x20 ADD SWAP1 DUP2 MSTORE PUSH1 0x20 ADD PUSH1 0x0 KECCAK256 PUSH1 0x0 SWAP1 SLOAD SWAP1 PUSH2 0x100 EXP SWAP1 DIV PUSH1 0xFF AND SWAP1 POP SWAP3 SWAP2 POP POP JUMP JUMPDEST PUSH1 0x0 DUP1 SHL DUP2 JUMP JUMPDEST PUSH32 0x14DF5EE2861D7F34562399FFA112FC59B51F810D2B875C3609BA0C31AC873D0 DUP2 JUMP JUMPDEST PUSH2 0xA49 DUP3 PUSH2 0x719 JUMP JUMPDEST PUSH2 0xA52 DUP2 PUSH2 0xC08 JUMP JUMPDEST PUSH2 0xA5C DUP4 DUP4 PUSH2 0xD15 JUMP JUMPDEST POP POP POP POP JUMP JUMPDEST PUSH2 0xA8C PUSH32 0x14DF5EE2861D7F34562399FFA112FC59B51F810D2B875C3609BA0C31AC873D0 CALLER PUSH2 0x9AB JUMP JUMPDEST PUSH2 0xACB JUMPI PUSH1 0x40 MLOAD PUSH32 0x8C379A000000000000000000000000000000000000000000000000000000000 DUP2 MSTORE PUSH1 0x4 ADD PUSH2 0xAC2 SWAP1 PUSH2 0x1550 JUMP JUMPDEST PUSH1 0x40 MLOAD DUP1 SWAP2 SUB SWAP1 REVERT JUMPDEST PUSH1 0x3 SLOAD DUP3 GT ISZERO PUSH2 0xB10 JUMPI PUSH1 0x40 MLOAD PUSH32 0x8C379A000000000000000000000000000000000000000000000000000000000 DUP2 MSTORE PUSH1 0x4 ADD PUSH2 0xB07 SWAP1 PUSH2 0x19BB JUMP JUMPDEST PUSH1 0x40 MLOAD DUP1 SWAP2 SUB SWAP1 REVERT JUMPDEST PUSH1 0x0 PUSH1 0x1 PUSH1 0x0 DUP5 DUP2 MSTORE PUSH1 0x20 ADD SWAP1 DUP2 MSTORE PUSH1 0x20 ADD PUSH1 0x0 KECCAK256 SWAP1 POP DUP2 DUP2 PUSH1 0x0 ADD SWAP1 DUP2 PUSH2 0xB38 SWAP2 SWAP1 PUSH2 0x17F3 JUMP JUMPDEST POP TIMESTAMP DUP2 PUSH1 0x1 ADD DUP2 SWAP1 SSTORE POP PUSH1 0x1 DUP2 PUSH1 0x2 ADD PUSH1 0x0 PUSH2 0x100 EXP DUP2 SLOAD DUP2 PUSH1 0xFF MUL NOT AND SWAP1 DUP4 ISZERO ISZERO MUL OR SWAP1 SSTORE POP DUP3 PUSH32 0x6F65CCC75E3C35412092CD4C93274F9FE3C5E9FD0CCCA8898ABEF125ADFAE143 DUP4 TIMESTAMP PUSH1 0x40 MLOAD PUSH2 0xB91 SWAP3 SWAP2 SWAP1 PUSH2 0x19DB JUMP JUMPDEST PUSH1 0x40 MLOAD DUP1 SWAP2 SUB SWAP1 LOG2 POP POP POP JUMP JUMPDEST PUSH1 0x0 PUSH32 0x1FFC9A700000000000000000000000000000000000000000000000000000000 PUSH28 0xFFFFFFFFFFFFFFFFFFFFFFFFFFFFFFFFFFFFFFFFFFFFFFFFFFFFFFFF NOT AND DUP3 PUSH28 0xFFFFFFFFFFFFFFFFFFFFFFFFFFFFFFFFFFFFFFFFFFFFFFFFFFFFFFFF NOT AND EQ SWAP1 POP SWAP2 SWAP1 POP JUMP JUMPDEST PUSH2 0xC19 DUP2 PUSH2 0xC14 PUSH2 0xD0D JUMP JUMPDEST PUSH2 0xE07 JUMP JUMPDEST POP JUMP JUMPDEST PUSH1 0x0 PUSH2 0xC28 DUP4 DUP4 PUSH2 0x9AB JUMP JUMPDEST PUSH2 0xD02 JUMPI PUSH1 0x1 PUSH1 0x0 DUP1 DUP6 DUP2 MSTORE PUSH1 0x20 ADD SWAP1 DUP2 MSTORE PUSH1 0x20 ADD PUSH1 0x0 KECCAK256 PUSH1 0x0 ADD PUSH1 0x0 DUP5 PUSH20 0xFFFFFFFFFFFFFFFFFFFFFFFFFFFFFFFFFFFFFFFF AND PUSH20 0xFFFFFFFFFFFFFFFFFFFFFFFFFFFFFFFFFFFFFFFF AND DUP2 MSTORE PUSH1 0x20 ADD SWAP1 DUP2 MSTORE PUSH1 0x20 ADD PUSH1 0x0 KECCAK256 PUSH1 0x0 PUSH2 0x100 EXP DUP2 SLOAD DUP2 PUSH1 0xFF MUL NOT AND SWAP1 DUP4 ISZERO ISZERO MUL OR SWAP1 SSTORE POP PUSH2 0xC9F PUSH2 0xD0D JUMP JUMPDEST PUSH20 0xFFFFFFFFFFFFFFFFFFFFFFFFFFFFFFFFFFFFFFFF AND DUP3 PUSH20 0xFFFFFFFFFFFFFFFFFFFFFFFFFFFFFFFFFFFFFFFF AND DUP5 PUSH32 0x2F8788117E7EFF1D82E926EC794901D17C78024A50270940304540A733656F0D PUSH1 0x40 MLOAD PUSH1 0x40 MLOAD DUP1 SWAP2 SUB SWAP1 LOG4 PUSH1 0x1 SWAP1 POP PUSH2 0xD07 JUMP JUMPDEST PUSH1 0x0 SWAP1 POP JUMPDEST SWAP3 SWAP2 POP POP JUMP JUMPDEST PUSH1 0x0 CALLER SWAP1 POP SWAP1 JUMP JUMPDEST PUSH1 0x0 PUSH2 0xD21 DUP4 DUP4 PUSH2 0x9AB JUMP JUMPDEST ISZERO PUSH2 0xDFC JUMPI PUSH1 0x0 DUP1 PUSH1 0x0 DUP6 DUP2 MSTORE PUSH1 0x20 ADD SWAP1 DUP2 MSTORE PUSH1 0x20 ADD PUSH1 0x0 KECCAK256 PUSH1 0x0 ADD PUSH1 0x0 DUP5 PUSH20 0xFFFFFFFFFFFFFFFFFFFFFFFFFFFFFFFFFFFFFFFF AND PUSH20 0xFFFFFFFFFFFFFFFFFFFFFFFFFFFFFFFFFFFFFFFF AND DUP2 MSTORE PUSH1 0x20 ADD SWAP1 DUP2 MSTORE PUSH1 0x20 ADD PUSH1 0x0 KECCAK256 PUSH1 0x0 PUSH2 0x100 EXP DUP2 SLOAD DUP2 PUSH1 0xFF MUL NOT AND SWAP1 DUP4 ISZERO ISZERO MUL OR SWAP1 SSTORE POP PUSH2 0xD99 PUSH2 0xD0D JUMP JUMPDEST PUSH20 0xFFFFFFFFFFFFFFFFFFFFFFFFFFFFFFFFFFFFFFFF AND DUP3 PUSH20 0xFFFFFFFFFFFFFFFFFFFFFFFFFFFFFFFFFFFFFFFF AND DUP5 PUSH32 0xF6391F5C32D9C69D2A47EA670B442974B53935D1EDC7FD64EB21E047A839171B PUSH1 0x40 MLOAD PUSH1 0x40 MLOAD DUP1 SWAP2 SUB SWAP1 LOG4 PUSH1 0x1 SWAP1 POP PUSH2 0xE01 JUMP JUMPDEST PUSH1 0x0 SWAP1 POP JUMPDEST SWAP3 SWAP2 POP POP JUMP JUMPDEST PUSH2 0xE11 DUP3 DUP3 PUSH2 0x9AB JUMP JUMPDEST PUSH2 0xE54 JUMPI DUP1 DUP3 PUSH1 0x40 MLOAD PUSH32 0xE2517D3F00000000000000000000000000000000000000000000000000000000 DUP2 MSTORE PUSH1 0x4 ADD PUSH2 0xE4B SWAP3 SWAP2 SWAP1 PUSH2 0x1A0B JUMP JUMPDEST PUSH1 0x40 MLOAD DUP1 SWAP2 SUB SWAP1 REVERT JUMPDEST POP POP JUMP JUMPDEST PUSH1 0x0 PUSH1 0x40 MLOAD SWAP1 POP SWAP1 JUMP JUMPDEST PUSH1 0x0 DUP1 REVERT JUMPDEST PUSH1 0x0 DUP1 REVERT JUMPDEST PUSH1 0x0 DUP1 REVERT JUMPDEST PUSH1 0x0 DUP1 REVERT JUMPDEST PUSH1 0x0 PUSH1 0x1F NOT PUSH1 0x1F DUP4 ADD AND SWAP1 POP SWAP2 SWAP1 POP JUMP JUMPDEST PUSH32 0x4E487B7100000000000000000000000000000000000000000000000000000000 PUSH1 0x0 MSTORE PUSH1 0x41 PUSH1 0x4 MSTORE PUSH1 0x24 PUSH1 0x0 REVERT JUMPDEST PUSH2 0xEBF DUP3 PUSH2 0xE76 JUMP JUMPDEST DUP2 ADD DUP2 DUP2 LT PUSH8 0xFFFFFFFFFFFFFFFF DUP3 GT OR ISZERO PUSH2 0xEDE JUMPI PUSH2 0xEDD PUSH2 0xE87 JUMP JUMPDEST JUMPDEST DUP1 PUSH1 0x40 MSTORE POP POP POP JUMP JUMPDEST PUSH1 0x0 PUSH2 0xEF1 PUSH2 0xE58 JUMP JUMPDEST SWAP1 POP PUSH2 0xEFD DUP3 DUP3 PUSH2 0xEB6 JUMP JUMPDEST SWAP2 SWAP1 POP JUMP JUMPDEST PUSH1 0x0 PUSH8 0xFFFFFFFFFFFFFFFF DUP3 GT ISZERO PUSH2 0xF1D JUMPI PUSH2 0xF1C PUSH2 0xE87 JUMP JUMPDEST JUMPDEST PUSH2 0xF26 DUP3 PUSH2 0xE76 JUMP JUMPDEST SWAP1 POP PUSH1 0x20 DUP2 ADD SWAP1 POP SWAP2 SWAP1 POP JUMP JUMPDEST DUP3 DUP2 DUP4 CALLDATACOPY PUSH1 0x0 DUP4 DUP4 ADD MSTORE POP POP POP JUMP JUMPDEST PUSH1 0x0 PUSH2 0xF55 PUSH2 0xF50 DUP5 PUSH2 0xF02 JUMP JUMPDEST PUSH2 0xEE7 JUMP JUMPDEST SWAP1 POP DUP3 DUP2 MSTORE PUSH1 0x20 DUP2 ADD DUP5 DUP5 DUP5 ADD GT ISZERO PUSH2 0xF71 JUMPI PUSH2 0xF70 PUSH2 0xE71 JUMP JUMPDEST JUMPDEST PUSH2 0xF7C DUP5 DUP3 DUP6 PUSH2 0xF33 JUMP JUMPDEST POP SWAP4 SWAP3 POP POP POP JUMP JUMPDEST PUSH1 0x0 DUP3 PUSH1 0x1F DUP4 ADD SLT PUSH2 0xF99 JUMPI PUSH2 0xF98 PUSH2 0xE6C JUMP JUMPDEST JUMPDEST DUP2 CALLDATALOAD PUSH2 0xFA9 DUP5 DUP3 PUSH1 0x20 DUP7 ADD PUSH2 0xF42 JUMP JUMPDEST SWAP2 POP POP SWAP3 SWAP2 POP POP JUMP JUMPDEST PUSH1 0x0 PUSH20 0xFFFFFFFFFFFFFFFFFFFFFFFFFFFFFFFFFFFFFFFF DUP3 AND SWAP1 POP SWAP2 SWAP1 POP JUMP JUMPDEST PUSH1 0x0 PUSH2 0xFDD DUP3 PUSH2 0xFB2 JUMP JUMPDEST SWAP1 POP SWAP2 SWAP1 POP JUMP JUMPDEST PUSH2 0xFED DUP2 PUSH2 0xFD2 JUMP JUMPDEST DUP2 EQ PUSH2 0xFF8 JUMPI PUSH1 0x0 DUP1 REVERT JUMPDEST POP JUMP JUMPDEST PUSH1 0x0 DUP2 CALLDATALOAD SWAP1 POP PUSH2 0x100A DUP2 PUSH2 0xFE4 JUMP JUMPDEST SWAP3 SWAP2 POP POP JUMP JUMPDEST PUSH1 0x0 DUP1 PUSH1 0x40 DUP4 DUP6 SUB SLT ISZERO PUSH2 0x1027 JUMPI PUSH2 0x1026 PUSH2 0xE62 JUMP JUMPDEST JUMPDEST PUSH1 0x0 DUP4 ADD CALLDATALOAD PUSH8 0xFFFFFFFFFFFFFFFF DUP2 GT ISZERO PUSH2 0x1045 JUMPI PUSH2 0x1044 PUSH2 0xE67 JUMP JUMPDEST JUMPDEST PUSH2 0x1051 DUP6 DUP3 DUP7 ADD PUSH2 0xF84 JUMP JUMPDEST SWAP3 POP POP PUSH1 0x20 PUSH2 0x1062 DUP6 DUP3 DUP7 ADD PUSH2 0xFFB JUMP JUMPDEST SWAP2 POP POP SWAP3 POP SWAP3 SWAP1 POP JUMP JUMPDEST PUSH1 0x0 PUSH32 0xFFFFFFFF00000000000000000000000000000000000000000000000000000000 DUP3 AND SWAP1 POP SWAP2 SWAP1 POP JUMP JUMPDEST PUSH2 0x10A1 DUP2 PUSH2 0x106C JUMP JUMPDEST DUP2 EQ PUSH2 0x10AC JUMPI PUSH1 0x0 DUP1 REVERT JUMPDEST POP JUMP JUMPDEST PUSH1 0x0 DUP2 CALLDATALOAD SWAP1 POP PUSH2 0x10BE DUP2 PUSH2 0x1098 JUMP JUMPDEST SWAP3 SWAP2 POP POP JUMP JUMPDEST PUSH1 0x0 PUSH1 0x20 DUP3 DUP5 SUB SLT ISZERO PUSH2 0x10DA JUMPI PUSH2 0x10D9 PUSH2 0xE62 JUMP JUMPDEST JUMPDEST PUSH1 0x0 PUSH2 0x10E8 DUP5 DUP3 DUP6 ADD PUSH2 0x10AF JUMP JUMPDEST SWAP2 POP POP SWAP3 SWAP2 POP POP JUMP JUMPDEST PUSH1 0x0 DUP2 ISZERO ISZERO SWAP1 POP SWAP2 SWAP1 POP JUMP JUMPDEST PUSH2 0x1106 DUP2 PUSH2 0x10F1 JUMP JUMPDEST DUP3 MSTORE POP POP JUMP JUMPDEST PUSH1 0x0 PUSH1 0x20 DUP3 ADD SWAP1 POP PUSH2 0x1121 PUSH1 0x0 DUP4 ADD DUP5 PUSH2 0x10FD JUMP JUMPDEST SWAP3 SWAP2 POP POP JUMP JUMPDEST PUSH1 0x0 PUSH1 0x20 DUP3 DUP5 SUB SLT ISZERO PUSH2 0x113D JUMPI PUSH2 0x113C PUSH2 0xE62 JUMP JUMPDEST JUMPDEST PUSH1 0x0 PUSH2 0x114B DUP5 DUP3 DUP6 ADD PUSH2 0xFFB JUMP JUMPDEST SWAP2 POP POP SWAP3 SWAP2 POP POP JUMP JUMPDEST PUSH1 0x0 DUP2 MLOAD SWAP1 POP SWAP2 SWAP1 POP JUMP JUMPDEST PUSH1 0x0 DUP3 DUP3 MSTORE PUSH1 0x20 DUP3 ADD SWAP1 POP SWAP3 SWAP2 POP POP JUMP JUMPDEST PUSH1 0x0 DUP2 SWAP1 POP PUSH1 0x20 DUP3 ADD SWAP1 POP SWAP2 SWAP1 POP JUMP JUMPDEST PUSH1 0x0 DUP2 SWAP1 POP SWAP2 SWAP1 POP JUMP JUMPDEST PUSH2 0x1193 DUP2 PUSH2 0x1180 JUMP JUMPDEST DUP3 MSTORE POP POP JUMP JUMPDEST PUSH1 0x0 PUSH2 0x11A5 DUP4 DUP4 PUSH2 0x118A JUMP JUMPDEST PUSH1 0x20 DUP4 ADD SWAP1 POP SWAP3 SWAP2 POP POP JUMP JUMPDEST PUSH1 0x0 PUSH1 0x20 DUP3 ADD SWAP1 POP SWAP2 SWAP1 POP JUMP JUMPDEST PUSH1 0x0 PUSH2 0x11C9 DUP3 PUSH2 0x1154 JUMP JUMPDEST PUSH2 0x11D3 DUP2 DUP6 PUSH2 0x115F JUMP JUMPDEST SWAP4 POP PUSH2 0x11DE DUP4 PUSH2 0x1170 JUMP JUMPDEST DUP1 PUSH1 0x0 JUMPDEST DUP4 DUP2 LT ISZERO PUSH2 0x120F JUMPI DUP2 MLOAD PUSH2 0x11F6 DUP9 DUP3 PUSH2 0x1199 JUMP JUMPDEST SWAP8 POP PUSH2 0x1201 DUP4 PUSH2 0x11B1 JUMP JUMPDEST SWAP3 POP POP PUSH1 0x1 DUP2 ADD SWAP1 POP PUSH2 0x11E2 JUMP JUMPDEST POP DUP6 SWAP4 POP POP POP POP SWAP3 SWAP2 POP POP JUMP JUMPDEST PUSH1 0x0 PUSH1 0x20 DUP3 ADD SWAP1 POP DUP2 DUP2 SUB PUSH1 0x0 DUP4 ADD MSTORE PUSH2 0x1236 DUP2 DUP5 PUSH2 0x11BE JUMP JUMPDEST SWAP1 POP SWAP3 SWAP2 POP POP JUMP JUMPDEST PUSH1 0x0 DUP2 SWAP1 POP SWAP2 SWAP1 POP JUMP JUMPDEST PUSH2 0x1251 DUP2 PUSH2 0x123E JUMP JUMPDEST DUP2 EQ PUSH2 0x125C JUMPI PUSH1 0x0 DUP1 REVERT JUMPDEST POP JUMP JUMPDEST PUSH1 0x0 DUP2 CALLDATALOAD SWAP1 POP PUSH2 0x126E DUP2 PUSH2 0x1248 JUMP JUMPDEST SWAP3 SWAP2 POP POP JUMP JUMPDEST PUSH1 0x0 PUSH1 0x20 DUP3 DUP5 SUB SLT ISZERO PUSH2 0x128A JUMPI PUSH2 0x1289 PUSH2 0xE62 JUMP JUMPDEST JUMPDEST PUSH1 0x0 PUSH2 0x1298 DUP5 DUP3 DUP6 ADD PUSH2 0x125F JUMP JUMPDEST SWAP2 POP POP SWAP3 SWAP2 POP POP JUMP JUMPDEST PUSH2 0x12AA DUP2 PUSH2 0x123E JUMP JUMPDEST DUP3 MSTORE POP POP JUMP JUMPDEST PUSH1 0x0 PUSH1 0x20 DUP3 ADD SWAP1 POP PUSH2 0x12C5 PUSH1 0x0 DUP4 ADD DUP5 PUSH2 0x12A1 JUMP JUMPDEST SWAP3 SWAP2 POP POP JUMP JUMPDEST PUSH1 0x0 DUP1 PUSH1 0x40 DUP4 DUP6 SUB SLT ISZERO PUSH2 0x12E2 JUMPI PUSH2 0x12E1 PUSH2 0xE62 JUMP JUMPDEST JUMPDEST PUSH1 0x0 PUSH2 0x12F0 DUP6 DUP3 DUP7 ADD PUSH2 0x125F JUMP JUMPDEST SWAP3 POP POP PUSH1 0x20 PUSH2 0x1301 DUP6 DUP3 DUP7 ADD PUSH2 0xFFB JUMP JUMPDEST SWAP2 POP POP SWAP3 POP SWAP3 SWAP1 POP JUMP JUMPDEST PUSH2 0x1314 DUP2 PUSH2 0x1180 JUMP JUMPDEST DUP2 EQ PUSH2 0x131F JUMPI PUSH1 0x0 DUP1 REVERT JUMPDEST POP JUMP JUMPDEST PUSH1 0x0 DUP2 CALLDATALOAD SWAP1 POP PUSH2 0x1331 DUP2 PUSH2 0x130B JUMP JUMPDEST SWAP3 SWAP2 POP POP JUMP JUMPDEST PUSH1 0x0 PUSH1 0x20 DUP3 DUP5 SUB SLT ISZERO PUSH2 0x134D JUMPI PUSH2 0x134C PUSH2 0xE62 JUMP JUMPDEST JUMPDEST PUSH1 0x0 PUSH2 0x135B DUP5 DUP3 DUP6 ADD PUSH2 0x1322 JUMP JUMPDEST SWAP2 POP POP SWAP3 SWAP2 POP POP JUMP JUMPDEST PUSH1 0x0 DUP2 MLOAD SWAP1 POP SWAP2 SWAP1 POP JUMP JUMPDEST PUSH1 0x0 DUP3 DUP3 MSTORE PUSH1 0x20 DUP3 ADD SWAP1 POP SWAP3 SWAP2 POP POP JUMP JUMPDEST PUSH1 0x0 JUMPDEST DUP4 DUP2 LT ISZERO PUSH2 0x139E JUMPI DUP1 DUP3 ADD MLOAD DUP2 DUP5 ADD MSTORE PUSH1 0x20 DUP2 ADD SWAP1 POP PUSH2 0x1383 JUMP JUMPDEST PUSH1 0x0 DUP5 DUP5 ADD MSTORE POP POP POP POP JUMP JUMPDEST PUSH1 0x0 PUSH2 0x13B5 DUP3 PUSH2 0x1364 JUMP JUMPDEST PUSH2 0x13BF DUP2 DUP6 PUSH2 0x136F JUMP JUMPDEST SWAP4 POP PUSH2 0x13CF DUP2 DUP6 PUSH1 0x20 DUP7 ADD PUSH2 0x1380 JUMP JUMPDEST PUSH2 0x13D8 DUP2 PUSH2 0xE76 JUMP JUMPDEST DUP5 ADD SWAP2 POP POP SWAP3 SWAP2 POP POP JUMP JUMPDEST PUSH2 0x13EC DUP2 PUSH2 0x1180 JUMP JUMPDEST DUP3 MSTORE POP POP JUMP JUMPDEST PUSH2 0x13FB DUP2 PUSH2 0xFD2 JUMP JUMPDEST DUP3 MSTORE POP POP JUMP JUMPDEST PUSH1 0x0 PUSH1 0x80 DUP3 ADD SWAP1 POP DUP2 DUP2 SUB PUSH1 0x0 DUP4 ADD MSTORE PUSH2 0x141B DUP2 DUP8 PUSH2 0x13AA JUMP JUMPDEST SWAP1 POP PUSH2 0x142A PUSH1 0x20 DUP4 ADD DUP7 PUSH2 0x13E3 JUMP JUMPDEST PUSH2 0x1437 PUSH1 0x40 DUP4 ADD DUP6 PUSH2 0x10FD JUMP JUMPDEST PUSH2 0x1444 PUSH1 0x60 DUP4 ADD DUP5 PUSH2 0x13F2 JUMP JUMPDEST SWAP6 SWAP5 POP POP POP POP POP JUMP JUMPDEST PUSH1 0x0 DUP1 PUSH1 0x40 DUP4 DUP6 SUB SLT ISZERO PUSH2 0x1464 JUMPI PUSH2 0x1463 PUSH2 0xE62 JUMP JUMPDEST JUMPDEST PUSH1 0x0 PUSH2 0x1472 DUP6 DUP3 DUP7 ADD PUSH2 0xFFB JUMP JUMPDEST SWAP3 POP POP PUSH1 0x20 PUSH2 0x1483 DUP6 DUP3 DUP7 ADD PUSH2 0x1322 JUMP JUMPDEST SWAP2 POP POP SWAP3 POP SWAP3 SWAP1 POP JUMP JUMPDEST PUSH1 0x0 PUSH1 0x20 DUP3 ADD SWAP1 POP PUSH2 0x14A2 PUSH1 0x0 DUP4 ADD DUP5 PUSH2 0x13E3 JUMP JUMPDEST SWAP3 SWAP2 POP POP JUMP JUMPDEST PUSH1 0x0 DUP1 PUSH1 0x40 DUP4 DUP6 SUB SLT ISZERO PUSH2 0x14BF JUMPI PUSH2 0x14BE PUSH2 0xE62 JUMP JUMPDEST JUMPDEST PUSH1 0x0 PUSH2 0x14CD DUP6 DUP3 DUP7 ADD PUSH2 0x1322 JUMP JUMPDEST SWAP3 POP POP PUSH1 0x20 DUP4 ADD CALLDATALOAD PUSH8 0xFFFFFFFFFFFFFFFF DUP2 GT ISZERO PUSH2 0x14EE JUMPI PUSH2 0x14ED PUSH2 0xE67 JUMP JUMPDEST JUMPDEST PUSH2 0x14FA DUP6 DUP3 DUP7 ADD PUSH2 0xF84 JUMP JUMPDEST SWAP2 POP POP SWAP3 POP SWAP3 SWAP1 POP JUMP JUMPDEST PUSH32 0x43616C6C6572206973206E6F742061206E6F7461727900000000000000000000 PUSH1 0x0 DUP3 ADD MSTORE POP JUMP JUMPDEST PUSH1 0x0 PUSH2 0x153A PUSH1 0x16 DUP4 PUSH2 0x136F JUMP JUMPDEST SWAP2 POP PUSH2 0x1545 DUP3 PUSH2 0x1504 JUMP JUMPDEST PUSH1 0x20 DUP3 ADD SWAP1 POP SWAP2 SWAP1 POP JUMP JUMPDEST PUSH1 0x0 PUSH1 0x20 DUP3 ADD SWAP1 POP DUP2 DUP2 SUB PUSH1 0x0 DUP4 ADD MSTORE PUSH2 0x1569 DUP2 PUSH2 0x152D JUMP JUMPDEST SWAP1 POP SWAP2 SWAP1 POP JUMP JUMPDEST PUSH32 0x4E487B7100000000000000000000000000000000000000000000000000000000 PUSH1 0x0 MSTORE PUSH1 0x11 PUSH1 0x4 MSTORE PUSH1 0x24 PUSH1 0x0 REVERT JUMPDEST PUSH1 0x0 PUSH2 0x15AA DUP3 PUSH2 0x1180 JUMP JUMPDEST SWAP2 POP PUSH32 0xFFFFFFFFFFFFFFFFFFFFFFFFFFFFFFFFFFFFFFFFFFFFFFFFFFFFFFFFFFFFFFFF DUP3 SUB PUSH2 0x15DC JUMPI PUSH2 0x15DB PUSH2 0x1570 JUMP JUMPDEST JUMPDEST PUSH1 0x1 DUP3 ADD SWAP1 POP SWAP2 SWAP1 POP JUMP JUMPDEST PUSH32 0x4E487B7100000000000000000000000000000000000000000000000000000000 PUSH1 0x0 MSTORE PUSH1 0x22 PUSH1 0x4 MSTORE PUSH1 0x24 PUSH1 0x0 REVERT JUMPDEST PUSH1 0x0 PUSH1 0x2 DUP3 DIV SWAP1 POP PUSH1 0x1 DUP3 AND DUP1 PUSH2 0x162E JUMPI PUSH1 0x7F DUP3 AND SWAP2 POP JUMPDEST PUSH1 0x20 DUP3 LT DUP2 SUB PUSH2 0x1641 JUMPI PUSH2 0x1640 PUSH2 0x15E7 JUMP JUMPDEST JUMPDEST POP SWAP2 SWAP1 POP JUMP JUMPDEST PUSH1 0x0 DUP2 SWAP1 POP DUP2 PUSH1 0x0 MSTORE PUSH1 0x20 PUSH1 0x0 KECCAK256 SWAP1 POP SWAP2 SWAP1 POP JUMP JUMPDEST PUSH1 0x0 PUSH1 0x20 PUSH1 0x1F DUP4 ADD DIV SWAP1 POP SWAP2 SWAP1 POP JUMP JUMPDEST PUSH1 0x0 DUP3 DUP3 SHL SWAP1 POP SWAP3 SWAP2 POP POP JUMP JUMPDEST PUSH1 0x0 PUSH1 0x8 DUP4 MUL PUSH2 0x16A9 PUSH32 0xFFFFFFFFFFFFFFFFFFFFFFFFFFFFFFFFFFFFFFFFFFFFFFFFFFFFFFFFFFFFFFFF DUP3 PUSH2 0x166C JUMP JUMPDEST PUSH2 0x16B3 DUP7 DUP4 PUSH2 0x166C JUMP JUMPDEST SWAP6 POP DUP1 NOT DUP5 AND SWAP4 POP DUP1 DUP7 AND DUP5 OR SWAP3 POP POP POP SWAP4 SWAP3 POP POP POP JUMP JUMPDEST PUSH1 0x0 DUP2 SWAP1 POP SWAP2 SWAP1 POP JUMP JUMPDEST PUSH1 0x0 PUSH2 0x16F0 PUSH2 0x16EB PUSH2 0x16E6 DUP5 PUSH2 0x1180 JUMP JUMPDEST PUSH2 0x16CB JUMP JUMPDEST PUSH2 0x1180 JUMP JUMPDEST SWAP1 POP SWAP2 SWAP1 POP JUMP JUMPDEST PUSH1 0x0 DUP2 SWAP1 POP SWAP2 SWAP1 POP JUMP JUMPDEST PUSH2 0x170A DUP4 PUSH2 0x16D5 JUMP JUMPDEST PUSH2 0x171E PUSH2 0x1716 DUP3 PUSH2 0x16F7 JUMP JUMPDEST DUP5 DUP5 SLOAD PUSH2 0x1679 JUMP JUMPDEST DUP3 SSTORE POP POP POP POP JUMP JUMPDEST PUSH1 0x0 SWAP1 JUMP JUMPDEST PUSH2 0x1733 PUSH2 0x1726 JUMP JUMPDEST PUSH2 0x173E DUP2 DUP5 DUP5 PUSH2 0x1701 JUMP JUMPDEST POP POP POP JUMP JUMPDEST JUMPDEST DUP2 DUP2 LT ISZERO PUSH2 0x1762 JUMPI PUSH2 0x1757 PUSH1 0x0 DUP3 PUSH2 0x172B JUMP JUMPDEST PUSH1 0x1 DUP2 ADD SWAP1 POP PUSH2 0x1744 JUMP JUMPDEST POP POP JUMP JUMPDEST PUSH1 0x1F DUP3 GT ISZERO PUSH2 0x17A7 JUMPI PUSH2 0x1778 DUP2 PUSH2 0x1647 JUMP JUMPDEST PUSH2 0x1781 DUP5 PUSH2 0x165C JUMP JUMPDEST DUP2 ADD PUSH1 0x20 DUP6 LT ISZERO PUSH2 0x1790 JUMPI DUP2 SWAP1 POP JUMPDEST PUSH2 0x17A4 PUSH2 0x179C DUP6 PUSH2 0x165C JUMP JUMPDEST DUP4 ADD DUP3 PUSH2 0x1743 JUMP JUMPDEST POP POP JUMPDEST POP POP POP JUMP JUMPDEST PUSH1 0x0 DUP3 DUP3 SHR SWAP1 POP SWAP3 SWAP2 POP POP JUMP JUMPDEST PUSH1 0x0 PUSH2 0x17CA PUSH1 0x0 NOT DUP5 PUSH1 0x8 MUL PUSH2 0x17AC JUMP JUMPDEST NOT DUP1 DUP4 AND SWAP2 POP POP SWAP3 SWAP2 POP POP JUMP JUMPDEST PUSH1 0x0 PUSH2 0x17E3 DUP4 DUP4 PUSH2 0x17B9 JUMP JUMPDEST SWAP2 POP DUP3 PUSH1 0x2 MUL DUP3 OR SWAP1 POP SWAP3 SWAP2 POP POP JUMP JUMPDEST PUSH2 0x17FC DUP3 PUSH2 0x1364 JUMP JUMPDEST PUSH8 0xFFFFFFFFFFFFFFFF DUP2 GT ISZERO PUSH2 0x1815 JUMPI PUSH2 0x1814 PUSH2 0xE87 JUMP JUMPDEST JUMPDEST PUSH2 0x181F DUP3 SLOAD PUSH2 0x1616 JUMP JUMPDEST PUSH2 0x182A DUP3 DUP3 DUP6 PUSH2 0x1766 JUMP JUMPDEST PUSH1 0x0 PUSH1 0x20 SWAP1 POP PUSH1 0x1F DUP4 GT PUSH1 0x1 DUP2 EQ PUSH2 0x185D JUMPI PUSH1 0x0 DUP5 ISZERO PUSH2 0x184B JUMPI DUP3 DUP8 ADD MLOAD SWAP1 POP JUMPDEST PUSH2 0x1855 DUP6 DUP3 PUSH2 0x17D7 JUMP JUMPDEST DUP7 SSTORE POP PUSH2 0x18BD JUMP JUMPDEST PUSH1 0x1F NOT DUP5 AND PUSH2 0x186B DUP7 PUSH2 0x1647 JUMP JUMPDEST PUSH1 0x0 JUMPDEST DUP3 DUP2 LT ISZERO PUSH2 0x1893 JUMPI DUP5 DUP10 ADD MLOAD DUP3 SSTORE PUSH1 0x1 DUP3 ADD SWAP2 POP PUSH1 0x20 DUP6 ADD SWAP5 POP PUSH1 0x20 DUP2 ADD SWAP1 POP PUSH2 0x186E JUMP JUMPDEST DUP7 DUP4 LT ISZERO PUSH2 0x18B0 JUMPI DUP5 DUP10 ADD MLOAD PUSH2 0x18AC PUSH1 0x1F DUP10 AND DUP3 PUSH2 0x17B9 JUMP JUMPDEST DUP4 SSTORE POP JUMPDEST PUSH1 0x1 PUSH1 0x2 DUP9 MUL ADD DUP9 SSTORE POP POP POP JUMPDEST POP POP POP POP POP POP JUMP JUMPDEST PUSH1 0x0 PUSH1 0x60 DUP3 ADD SWAP1 POP DUP2 DUP2 SUB PUSH1 0x0 DUP4 ADD MSTORE PUSH2 0x18DF DUP2 DUP7 PUSH2 0x13AA JUMP JUMPDEST SWAP1 POP PUSH2 0x18EE PUSH1 0x20 DUP4 ADD DUP6 PUSH2 0x13E3 JUMP JUMPDEST PUSH2 0x18FB PUSH1 0x40 DUP4 ADD DUP5 PUSH2 0x13F2 JUMP JUMPDEST SWAP5 SWAP4 POP POP POP POP JUMP JUMPDEST PUSH32 0x43616C6C6572206973206E6F7420616E2061646D696E00000000000000000000 PUSH1 0x0 DUP3 ADD MSTORE POP JUMP JUMPDEST PUSH1 0x0 PUSH2 0x1939 PUSH1 0x16 DUP4 PUSH2 0x136F JUMP JUMPDEST SWAP2 POP PUSH2 0x1944 DUP3 PUSH2 0x1903 JUMP JUMPDEST PUSH1 0x20 DUP3 ADD SWAP1 POP SWAP2 SWAP1 POP JUMP JUMPDEST PUSH1 0x0 PUSH1 0x20 DUP3 ADD SWAP1 POP DUP2 DUP2 SUB PUSH1 0x0 DUP4 ADD MSTORE PUSH2 0x1968 DUP2 PUSH2 0x192C JUMP JUMPDEST SWAP1 POP SWAP2 SWAP1 POP JUMP JUMPDEST PUSH32 0x496E76616C696420636F6E74726163742049442E000000000000000000000000 PUSH1 0x0 DUP3 ADD MSTORE POP JUMP JUMPDEST PUSH1 0x0 PUSH2 0x19A5 PUSH1 0x14 DUP4 PUSH2 0x136F JUMP JUMPDEST SWAP2 POP PUSH2 0x19B0 DUP3 PUSH2 0x196F JUMP JUMPDEST PUSH1 0x20 DUP3 ADD SWAP1 POP SWAP2 SWAP1 POP JUMP JUMPDEST PUSH1 0x0 PUSH1 0x20 DUP3 ADD SWAP1 POP DUP2 DUP2 SUB PUSH1 0x0 DUP4 ADD MSTORE PUSH2 0x19D4 DUP2 PUSH2 0x1998 JUMP JUMPDEST SWAP1 POP SWAP2 SWAP1 POP JUMP JUMPDEST PUSH1 0x0 PUSH1 0x40 DUP3 ADD SWAP1 POP DUP2 DUP2 SUB PUSH1 0x0 DUP4 ADD MSTORE PUSH2 0x19F5 DUP2 DUP6 PUSH2 0x13AA JUMP JUMPDEST SWAP1 POP PUSH2 0x1A04 PUSH1 0x20 DUP4 ADD DUP5 PUSH2 0x13E3 JUMP JUMPDEST SWAP4 SWAP3 POP POP POP JUMP JUMPDEST PUSH1 0x0 PUSH1 0x40 DUP3 ADD SWAP1 POP PUSH2 0x1A20 PUSH1 0x0 DUP4 ADD DUP6 PUSH2 0x13F2 JUMP JUMPDEST PUSH2 0x1A2D PUSH1 0x20 DUP4 ADD DUP5 PUSH2 0x12A1 JUMP JUMPDEST SWAP4 SWAP3 POP POP POP JUMP INVALID LOG2 PUSH5 0x6970667358 0x22 SLT KECCAK256 GAS 0x2E PUSH8 0x675BA9CA000A88E8 ISZERO 0xFC TSTORE DUP15 PUSH14 0x4DB7A6F39DF609FB81E084E3B739 CREATE 0xDE PUSH5 0x736F6C6343 STOP ADDMOD XOR STOP CALLER "},"methodIdentifiers":{"ADMIN_ROLE()":"75b238fc","DEFAULT_ADMIN_ROLE()":"a217fddf","NOTARY_ROLE()":"c48b0baa","addNotary(address)":"0588565f","contractCount()":"8736381a","contracts(uint256)":"474da79a","getContractsByOwner(address)":"1cea013a","getRoleAdmin(bytes32)":"248a9ca3","grantRole(bytes32,address)":"2f2ff15d","hasRole(bytes32,address)":"91d14854","modifyContract(uint256,string)":"d5ebd3a4","ownerToContracts(address,uint256)":"6a1972bd","removeNotary(address)":"86785a6f","renounceRole(bytes32,address)":"36568abe","revokeRole(bytes32,address)":"d547741f","storeContract(string,address)":"00cfa86f","supportsInterface(bytes4)":"01ffc9a7"}}}}}