{
  "_format": "hh-sol-artifact-1",
  "contractName": "NotarialContract",
  "sourceName": "contracts/NotarialContract.sol",
  "abi": [
    {
      "inputs": [],
      "stateMutability": "nonpayable",
      "type": "constructor"
    },
    {
      "inputs": [],
      "name": "AccessControlBadConfirmation",
      "type": "error"
    },
    {
      "inputs": [
        {
          "internalType": "address",
          "name": "account",
          "type": "address"
        },
        {
          "internalType": "bytes32",
          "name": "neededRole",
          "type": "bytes32"
        }
      ],
      "name": "AccessControlUnauthorizedAccount",
      "type": "error"
    },
    {
      "anonymous": false,
      "inputs": [
        {
          "indexed": true,
          "internalType": "uint256",
          "name": "id",
          "type": "uint256"
        },
        {
          "indexed": false,
          "internalType": "string",
          "name": "newIpfsHash",
          "type": "string"
        },
        {
          "indexed": false,
          "internalType": "uint256",
          "name": "timestamp",
          "type": "uint256"
        }
      ],
      "name": "ContractModified",
      "type": "event"
    },
    {
      "anonymous": false,
      "inputs": [
        {
          "indexed": true,
          "internalType": "uint256",
          "name": "id",
          "type": "uint256"
        },
        {
          "indexed": false,
          "internalType": "string",
          "name": "ipfsHash",
          "type": "string"
        },
        {
          "indexed": false,
          "internalType": "uint256",
          "name": "timestamp",
          "type": "uint256"
        },
        {
          "indexed": false,
          "internalType": "address",
          "name": "owner",
          "type": "address"
        }
      ],
      "name": "ContractStored",
      "type": "event"
    },
    {
      "anonymous": false,
      "inputs": [
        {
          "indexed": true,
          "internalType": "bytes32",
          "name": "role",
          "type": "bytes32"
        },
        {
          "indexed": true,
          "internalType": "bytes32",
          "name": "previousAdminRole",
          "type": "bytes32"
        },
        {
          "indexed": true,
          "internalType": "bytes32",
          "name": "newAdminRole",
          "type": "bytes32"
        }
      ],
      "name": "RoleAdminChanged",
      "type": "event"
    },
    {
      "anonymous": false,
      "inputs": [
        {
          "indexed": true,
          "internalType": "bytes32",
          "name": "role",
          "type": "bytes32"
        },
        {
          "indexed": true,
          "internalType": "address",
          "name": "account",
          "type": "address"
        },
        {
          "indexed": true,
          "internalType": "address",
          "name": "sender",
          "type": "address"
        }
      ],
      "name": "RoleGranted",
      "type": "event"
    },
    {
      "anonymous": false,
      "inputs": [
        {
          "indexed": true,
          "internalType": "bytes32",
          "name": "role",
          "type": "bytes32"
        },
        {
          "indexed": true,
          "internalType": "address",
          "name": "account",
          "type": "address"
        },
        {
          "indexed": true,
          "internalType": "address",
          "name": "sender",
          "type": "address"
        }
      ],
      "name": "RoleRevoked",
      "type": "event"
    },
    {
      "inputs": [],
      "name": "ADMIN_ROLE",
      "outputs": [
        {
          "internalType": "bytes32",
          "name": "",
          "type": "bytes32"
        }
      ],
      "stateMutability": "view",
      "type": "function"
    },
    {
      "inputs": [],
      "name": "DEFAULT_ADMIN_ROLE",
      "outputs": [
        {
          "internalType": "bytes32",
          "name": "",
          "type": "bytes32"
        }
      ],
      "stateMutability": "view",
      "type": "function"
    },
    {
      "inputs": [],
      "name": "NOTARY_ROLE",
      "outputs": [
        {
          "internalType": "bytes32",
          "name": "",
          "type": "bytes32"
        }
      ],
      "stateMutability": "view",
      "type": "function"
    },
    {
      "inputs": [
        {
          "internalType": "address",
          "name": "notary",
          "type": "address"
        }
      ],
      "name": "addNotary",
      "outputs": [],
      "stateMutability": "nonpayable",
      "type": "function"
    },
    {
      "inputs": [],
      "name": "contractCount",
      "outputs": [
        {
          "internalType": "uint256",
          "name": "",
          "type": "uint256"
        }
      ],
      "stateMutability": "view",
      "type": "function"
    },
    {
      "inputs": [
        {
          "internalType": "uint256",
          "name": "",
          "type": "uint256"
        }
      ],
      "name": "contracts",
      "outputs": [
        {
          "internalType": "string",
          "name": "ipfsHash",
          "type": "string"
        },
        {
          "internalType": "uint256",
          "name": "timestamp",
          "type": "uint256"
        },
        {
          "internalType": "bool",
          "name": "isModified",
          "type": "bool"
        },
        {
          "internalType": "address",
          "name": "owner",
          "type": "address"
        }
      ],
      "stateMutability": "view",
      "type": "function"
    },
    {
      "inputs": [
        {
          "internalType": "address",
          "name": "_owner",
          "type": "address"
        }
      ],
      "name": "getContractsByOwner",
      "outputs": [
        {
          "internalType": "uint256[]",
          "name": "",
          "type": "uint256[]"
        }
      ],
      "stateMutability": "view",
      "type": "function"
    },
    {
      "inputs": [
        {
          "internalType": "bytes32",
          "name": "role",
          "type": "bytes32"
        }
      ],
      "name": "getRoleAdmin",
      "outputs": [
        {
          "internalType": "bytes32",
          "name": "",
          "type": "bytes32"
        }
      ],
      "stateMutability": "view",
      "type": "function"
    },
    {
      "inputs": [
        {
          "internalType": "bytes32",
          "name": "role",
          "type": "bytes32"
        },
        {
          "internalType": "address",
          "name": "account",
          "type": "address"
        }
      ],
      "name": "grantRole",
      "outputs": [],
      "stateMutability": "nonpayable",
      "type": "function"
    },
    {
      "inputs": [
        {
          "internalType": "bytes32",
          "name": "role",
          "type": "bytes32"
        },
        {
          "internalType": "address",
          "name": "account",
          "type": "address"
        }
      ],
      "name": "hasRole",
      "outputs": [
        {
          "internalType": "bool",
          "name": "",
          "type": "bool"
        }
      ],
      "stateMutability": "view",
      "type": "function"
    },
    {
      "inputs": [
        {
          "internalType": "uint256",
          "name": "_id",
          "type": "uint256"
        },
        {
          "internalType": "string",
          "name": "_newIpfsHash",
          "type": "string"
        }
      ],
      "name": "modifyContract",
      "outputs": [],
      "stateMutability": "nonpayable",
      "type": "function"
    },
    {
      "inputs": [
        {
          "internalType": "address",
          "name": "",
          "type": "address"
        },
        {
          "internalType": "uint256",
          "name": "",
          "type": "uint256"
        }
      ],
      "name": "ownerToContracts",
      "outputs": [
        {
          "internalType": "uint256",
          "name": "",
          "type": "uint256"
        }
      ],
      "stateMutability": "view",
      "type": "function"
    },
    {
      "inputs": [
        {
          "internalType": "address",
          "name": "notary",
          "type": "address"
        }
      ],
      "name": "removeNotary",
      "outputs": [],
      "stateMutability": "nonpayable",
      "type": "function"
    },
    {
      "inputs": [
        {
          "internalType": "bytes32",
          "name": "role",
          "type": "bytes32"
        },
        {
          "internalType": "address",
          "name": "callerConfirmation",
          "type": "address"
        }
      ],
      "name": "renounceRole",
      "outputs": [],
      "stateMutability": "nonpayable",
      "type": "function"
    },
    {
      "inputs": [
        {
          "internalType": "bytes32",
          "name": "role",
          "type": "bytes32"
        },
        {
          "internalType": "address",
          "name": "account",
          "type": "address"
        }
      ],
      "name": "revokeRole",
      "outputs": [],
      "stateMutability": "nonpayable",
      "type": "function"
    },
    {
      "inputs": [
        {
          "internalType": "string",
          "name": "_ipfsHash",
          "type": "string"
        },
        {
          "internalType": "address",
          "name": "_owner",
          "type": "address"
        }
      ],
      "name": "storeContract",
      "outputs": [],
      "stateMutability": "nonpayable",
      "type": "function"
    },
    {
      "inputs": [
        {
          "internalType": "bytes4",
          "name": "interfaceId",
          "type": "bytes4"
        }
      ],
      "name": "supportsInterface",
      "outputs": [
        {
          "internalType": "bool",
          "name": "",
          "type": "bool"
        }
      ],
      "stateMutability": "view",
      "type": "function"
    }
  ],
  "bytecode": "0x60806040523480156200001157600080fd5b50620000276000801b33620000b360201b60201c565b506200007a7f014df5ee2861d7f34562399ffa112fc59b51f810d2b875c3609ba0c31ac873d07fa49807205ce4d355092ef5a8a18f56e8913cf4a201fbe287825b095693c21775620001b660201b60201c565b620000ac7fa49807205ce4d355092ef5a8a18f56e8913cf4a201fbe287825b095693c2177533620000b360201b60201c565b50620002aa565b6000620000c783836200021960201b60201c565b620001ab57600160008085815260200190815260200160002060000160008473ffffffffffffffffffffffffffffffffffffffff1673ffffffffffffffffffffffffffffffffffffffff16815260200190815260200160002060006101000a81548160ff021916908315150217905550620001476200028360201b60201c565b73ffffffffffffffffffffffffffffffffffffffff168273ffffffffffffffffffffffffffffffffffffffff16847f2f8788117e7eff1d82e926ec794901d17c78024a50270940304540a733656f0d60405160405180910390a460019050620001b0565b600090505b92915050565b6000620001c9836200028b60201b60201c565b905081600080858152602001908152602001600020600101819055508181847fbd79b86ffe0ab8e8776151514217cd7cacd52c909f66475c3af44e129f0b00ff60405160405180910390a4505050565b600080600084815260200190815260200160002060000160008373ffffffffffffffffffffffffffffffffffffffff1673ffffffffffffffffffffffffffffffffffffffff16815260200190815260200160002060009054906101000a900460ff16905092915050565b600033905090565b6000806000838152602001908152602001600020600101549050919050565b6118a680620002ba6000396000f3fe608060405234801561001057600080fd5b506004361061010a5760003560e01c80636a1972bd116100a257806391d148541161007157806391d14854146102ca578063a217fddf146102fa578063c48b0baa14610318578063d547741f14610336578063d5ebd3a4146103525761010a565b80636a1972bd1461024257806375b238fc1461027257806386785a6f146102905780638736381a146102ac5761010a565b8063248a9ca3116100de578063248a9ca3146101a75780632f2ff15d146101d757806336568abe146101f3578063474da79a1461020f5761010a565b8062cfa86f1461010f57806301ffc9a71461012b5780630588565f1461015b5780631cea013a14610177575b600080fd5b61012960048036038101906101249190610f24565b61036e565b005b61014560048036038101906101409190610fd8565b610534565b6040516101529190611020565b60405180910390f35b6101756004803603810190610170919061103b565b6105ae565b005b610191600480360381019061018c919061103b565b610606565b60405161019e9190611130565b60405180910390f35b6101c160048036038101906101bc9190611188565b61069d565b6040516101ce91906111c4565b60405180910390f35b6101f160048036038101906101ec91906111df565b6106bc565b005b61020d600480360381019061020891906111df565b6106de565b005b6102296004803603810190610224919061124b565b610759565b6040516102399493929190611315565b60405180910390f35b61025c60048036038101906102579190611361565b61083e565b60405161026991906113a1565b60405180910390f35b61027a61086f565b60405161028791906111c4565b60405180910390f35b6102aa60048036038101906102a5919061103b565b610893565b005b6102b46108eb565b6040516102c191906113a1565b60405180910390f35b6102e460048036038101906102df91906111df565b6108f1565b6040516102f19190611020565b60405180910390f35b61030261095b565b60405161030f91906111c4565b60405180910390f35b610320610962565b60405161032d91906111c4565b60405180910390f35b610350600480360381019061034b91906111df565b610986565b005b61036c600480360381019061036791906113bc565b6109a8565b005b7f014df5ee2861d7f34562399ffa112fc59b51f810d2b875c3609ba0c31ac873d061039881610ab2565b600360008154809291906103ab90611447565b919050555060405180608001604052808481526020014281526020016000151581526020018373ffffffffffffffffffffffffffffffffffffffff168152506001600060035481526020019081526020016000206000820151816000019081610414919061169b565b506020820151816001015560408201518160020160006101000a81548160ff02191690831515021790555060608201518160020160016101000a81548173ffffffffffffffffffffffffffffffffffffffff021916908373ffffffffffffffffffffffffffffffffffffffff160217905550905050600260008373ffffffffffffffffffffffffffffffffffffffff1673ffffffffffffffffffffffffffffffffffffffff16815260200190815260200160002060035490806001815401808255809150506001900390600052602060002001600090919091909150556003547f848e31eceb7456b8afaae2c2d1d23897aee4d30788a50e75ed7f82c6b23140238442856040516105279392919061176d565b60405180910390a2505050565b60007f7965db0b000000000000000000000000000000000000000000000000000000007bffffffffffffffffffffffffffffffffffffffffffffffffffffffff1916827bffffffffffffffffffffffffffffffffffffffffffffffffffffffff191614806105a757506105a682610ac6565b5b9050919050565b7fa49807205ce4d355092ef5a8a18f56e8913cf4a201fbe287825b095693c217756105d881610ab2565b6106027f014df5ee2861d7f34562399ffa112fc59b51f810d2b875c3609ba0c31ac873d0836106bc565b5050565b6060600260008373ffffffffffffffffffffffffffffffffffffffff1673ffffffffffffffffffffffffffffffffffffffff16815260200190815260200160002080548060200260200160405190810160405280929190818152602001828054801561069157602002820191906000526020600020905b81548152602001906001019080831161067d575b50505050509050919050565b6000806000838152602001908152602001600020600101549050919050565b6106c58261069d565b6106ce81610ab2565b6106d88383610b30565b50505050565b6106e6610c21565b73ffffffffffffffffffffffffffffffffffffffff168173ffffffffffffffffffffffffffffffffffffffff161461074a576040517f6697b23200000000000000000000000000000000000000000000000000000000815260040160405180910390fd5b6107548282610c29565b505050565b600160205280600052604060002060009150905080600001805461077c906114be565b80601f01602080910402602001604051908101604052809291908181526020018280546107a8906114be565b80156107f55780601f106107ca576101008083540402835291602001916107f5565b820191906000526020600020905b8154815290600101906020018083116107d857829003601f168201915b5050505050908060010154908060020160009054906101000a900460ff16908060020160019054906101000a900473ffffffffffffffffffffffffffffffffffffffff16905084565b6002602052816000526040600020818154811061085a57600080fd5b90600052602060002001600091509150505481565b7fa49807205ce4d355092ef5a8a18f56e8913cf4a201fbe287825b095693c2177581565b7fa49807205ce4d355092ef5a8a18f56e8913cf4a201fbe287825b095693c217756108bd81610ab2565b6108e77f014df5ee2861d7f34562399ffa112fc59b51f810d2b875c3609ba0c31ac873d083610986565b5050565b60035481565b600080600084815260200190815260200160002060000160008373ffffffffffffffffffffffffffffffffffffffff1673ffffffffffffffffffffffffffffffffffffffff16815260200190815260200160002060009054906101000a900460ff16905092915050565b6000801b81565b7f014df5ee2861d7f34562399ffa112fc59b51f810d2b875c3609ba0c31ac873d081565b61098f8261069d565b61099881610ab2565b6109a28383610c29565b50505050565b7f014df5ee2861d7f34562399ffa112fc59b51f810d2b875c3609ba0c31ac873d06109d281610ab2565b60035483111580156109e45750600083115b610a23576040517f08c379a0000000000000000000000000000000000000000000000000000000008152600401610a1a906117f7565b60405180910390fd5b600060016000858152602001908152602001600020905082816000019081610a4b919061169b565b5042816001018190555060018160020160006101000a81548160ff021916908315150217905550837f6f65ccc75e3c35412092cd4c93274f9fe3c5e9fd0ccca8898abef125adfae1438442604051610aa4929190611817565b60405180910390a250505050565b610ac381610abe610c21565b610d1b565b50565b60007f01ffc9a7000000000000000000000000000000000000000000000000000000007bffffffffffffffffffffffffffffffffffffffffffffffffffffffff1916827bffffffffffffffffffffffffffffffffffffffffffffffffffffffff1916149050919050565b6000610b3c83836108f1565b610c1657600160008085815260200190815260200160002060000160008473ffffffffffffffffffffffffffffffffffffffff1673ffffffffffffffffffffffffffffffffffffffff16815260200190815260200160002060006101000a81548160ff021916908315150217905550610bb3610c21565b73ffffffffffffffffffffffffffffffffffffffff168273ffffffffffffffffffffffffffffffffffffffff16847f2f8788117e7eff1d82e926ec794901d17c78024a50270940304540a733656f0d60405160405180910390a460019050610c1b565b600090505b92915050565b600033905090565b6000610c3583836108f1565b15610d1057600080600085815260200190815260200160002060000160008473ffffffffffffffffffffffffffffffffffffffff1673ffffffffffffffffffffffffffffffffffffffff16815260200190815260200160002060006101000a81548160ff021916908315150217905550610cad610c21565b73ffffffffffffffffffffffffffffffffffffffff168273ffffffffffffffffffffffffffffffffffffffff16847ff6391f5c32d9c69d2a47ea670b442974b53935d1edc7fd64eb21e047a839171b60405160405180910390a460019050610d15565b600090505b92915050565b610d2582826108f1565b610d685780826040517fe2517d3f000000000000000000000000000000000000000000000000000000008152600401610d5f929190611847565b60405180910390fd5b5050565b6000604051905090565b600080fd5b600080fd5b600080fd5b600080fd5b6000601f19601f8301169050919050565b7f4e487b7100000000000000000000000000000000000000000000000000000000600052604160045260246000fd5b610dd382610d8a565b810181811067ffffffffffffffff82111715610df257610df1610d9b565b5b80604052505050565b6000610e05610d6c565b9050610e118282610dca565b919050565b600067ffffffffffffffff821115610e3157610e30610d9b565b5b610e3a82610d8a565b9050602081019050919050565b82818337600083830152505050565b6000610e69610e6484610e16565b610dfb565b905082815260208101848484011115610e8557610e84610d85565b5b610e90848285610e47565b509392505050565b600082601f830112610ead57610eac610d80565b5b8135610ebd848260208601610e56565b91505092915050565b600073ffffffffffffffffffffffffffffffffffffffff82169050919050565b6000610ef182610ec6565b9050919050565b610f0181610ee6565b8114610f0c57600080fd5b50565b600081359050610f1e81610ef8565b92915050565b60008060408385031215610f3b57610f3a610d76565b5b600083013567ffffffffffffffff811115610f5957610f58610d7b565b5b610f6585828601610e98565b9250506020610f7685828601610f0f565b9150509250929050565b60007fffffffff0000000000000000000000000000000000000000000000000000000082169050919050565b610fb581610f80565b8114610fc057600080fd5b50565b600081359050610fd281610fac565b92915050565b600060208284031215610fee57610fed610d76565b5b6000610ffc84828501610fc3565b91505092915050565b60008115159050919050565b61101a81611005565b82525050565b60006020820190506110356000830184611011565b92915050565b60006020828403121561105157611050610d76565b5b600061105f84828501610f0f565b91505092915050565b600081519050919050565b600082825260208201905092915050565b6000819050602082019050919050565b6000819050919050565b6110a781611094565b82525050565b60006110b9838361109e565b60208301905092915050565b6000602082019050919050565b60006110dd82611068565b6110e78185611073565b93506110f283611084565b8060005b8381101561112357815161110a88826110ad565b9750611115836110c5565b9250506001810190506110f6565b5085935050505092915050565b6000602082019050818103600083015261114a81846110d2565b905092915050565b6000819050919050565b61116581611152565b811461117057600080fd5b50565b6000813590506111828161115c565b92915050565b60006020828403121561119e5761119d610d76565b5b60006111ac84828501611173565b91505092915050565b6111be81611152565b82525050565b60006020820190506111d960008301846111b5565b92915050565b600080604083850312156111f6576111f5610d76565b5b600061120485828601611173565b925050602061121585828601610f0f565b9150509250929050565b61122881611094565b811461123357600080fd5b50565b6000813590506112458161121f565b92915050565b60006020828403121561126157611260610d76565b5b600061126f84828501611236565b91505092915050565b600081519050919050565b600082825260208201905092915050565b60005b838110156112b2578082015181840152602081019050611297565b60008484015250505050565b60006112c982611278565b6112d38185611283565b93506112e3818560208601611294565b6112ec81610d8a565b840191505092915050565b61130081611094565b82525050565b61130f81610ee6565b82525050565b6000608082019050818103600083015261132f81876112be565b905061133e60208301866112f7565b61134b6040830185611011565b6113586060830184611306565b95945050505050565b6000806040838503121561137857611377610d76565b5b600061138685828601610f0f565b925050602061139785828601611236565b9150509250929050565b60006020820190506113b660008301846112f7565b92915050565b600080604083850312156113d3576113d2610d76565b5b60006113e185828601611236565b925050602083013567ffffffffffffffff81111561140257611401610d7b565b5b61140e85828601610e98565b9150509250929050565b7f4e487b7100000000000000000000000000000000000000000000000000000000600052601160045260246000fd5b600061145282611094565b91507fffffffffffffffffffffffffffffffffffffffffffffffffffffffffffffffff820361148457611483611418565b5b600182019050919050565b7f4e487b7100000000000000000000000000000000000000000000000000000000600052602260045260246000fd5b600060028204905060018216806114d657607f821691505b6020821081036114e9576114e861148f565b5b50919050565b60008190508160005260206000209050919050565b60006020601f8301049050919050565b600082821b905092915050565b6000600883026115517fffffffffffffffffffffffffffffffffffffffffffffffffffffffffffffffff82611514565b61155b8683611514565b95508019841693508086168417925050509392505050565b6000819050919050565b600061159861159361158e84611094565b611573565b611094565b9050919050565b6000819050919050565b6115b28361157d565b6115c66115be8261159f565b848454611521565b825550505050565b600090565b6115db6115ce565b6115e68184846115a9565b505050565b5b8181101561160a576115ff6000826115d3565b6001810190506115ec565b5050565b601f82111561164f57611620816114ef565b61162984611504565b81016020851015611638578190505b61164c61164485611504565b8301826115eb565b50505b505050565b600082821c905092915050565b600061167260001984600802611654565b1980831691505092915050565b600061168b8383611661565b9150826002028217905092915050565b6116a482611278565b67ffffffffffffffff8111156116bd576116bc610d9b565b5b6116c782546114be565b6116d282828561160e565b600060209050601f83116001811461170557600084156116f3578287015190505b6116fd858261167f565b865550611765565b601f198416611713866114ef565b60005b8281101561173b57848901518255600182019150602085019450602081019050611716565b868310156117585784890151611754601f891682611661565b8355505b6001600288020188555050505b505050505050565b6000606082019050818103600083015261178781866112be565b905061179660208301856112f7565b6117a36040830184611306565b949350505050565b7f496e76616c696420636f6e74726163742049442e000000000000000000000000600082015250565b60006117e1601483611283565b91506117ec826117ab565b602082019050919050565b60006020820190508181036000830152611810816117d4565b9050919050565b6000604082019050818103600083015261183181856112be565b905061184060208301846112f7565b9392505050565b600060408201905061185c6000830185611306565b61186960208301846111b5565b939250505056fea2646970667358221220181778a3aa1e6cc7a624c307d6659fd0bc3dfb84bd03391b9c63dbfbf03820ad64736f6c63430008180033",
  "linkReferences": {},
  "deployedLinkReferences": {}
}